{
	"contracts/3_ProductMarketplace.sol": {
		"ProductMarketplace": {
			"abi": [
				{
					"inputs": [],
					"stateMutability": "nonpayable",
					"type": "constructor"
				},
				{
					"anonymous": false,
					"inputs": [
						{
							"indexed": false,
							"internalType": "uint256",
							"name": "id",
							"type": "uint256"
						},
						{
							"indexed": false,
							"internalType": "string",
							"name": "name",
							"type": "string"
						},
						{
							"indexed": false,
							"internalType": "uint256",
							"name": "price",
							"type": "uint256"
						}
					],
					"name": "ProductAdded",
					"type": "event"
				},
				{
					"anonymous": false,
					"inputs": [
						{
							"indexed": false,
							"internalType": "uint256",
							"name": "id",
							"type": "uint256"
						}
					],
					"name": "ProductSold",
					"type": "event"
				},
				{
					"inputs": [
						{
							"internalType": "string",
							"name": "name",
							"type": "string"
						},
						{
							"internalType": "uint256",
							"name": "price",
							"type": "uint256"
						}
					],
					"name": "addProduct",
					"outputs": [],
					"stateMutability": "nonpayable",
					"type": "function"
				},
				{
					"inputs": [
						{
							"internalType": "uint256",
							"name": "id",
							"type": "uint256"
						}
					],
					"name": "buyProduct",
					"outputs": [],
					"stateMutability": "payable",
					"type": "function"
				},
				{
					"inputs": [],
					"name": "owner",
					"outputs": [
						{
							"internalType": "address payable",
							"name": "",
							"type": "address"
						}
					],
					"stateMutability": "view",
					"type": "function"
				},
				{
					"inputs": [
						{
							"internalType": "uint256",
							"name": "",
							"type": "uint256"
						}
					],
					"name": "products",
					"outputs": [
						{
							"internalType": "uint256",
							"name": "id",
							"type": "uint256"
						},
						{
							"internalType": "string",
							"name": "name",
							"type": "string"
						},
						{
							"internalType": "uint256",
							"name": "price",
							"type": "uint256"
						},
						{
							"internalType": "bool",
							"name": "sold",
							"type": "bool"
						}
					],
					"stateMutability": "view",
					"type": "function"
				},
				{
					"inputs": [],
					"name": "total",
					"outputs": [
						{
							"internalType": "uint256",
							"name": "",
							"type": "uint256"
						}
					],
					"stateMutability": "view",
					"type": "function"
				}
			],
			"devdoc": {
				"details": "Implements voting process along with vote delegation",
				"kind": "dev",
				"methods": {},
				"title": "ProductMarketplace",
				"version": 1
			},
			"evm": {
				"assembly": "    /* \"contracts/3_ProductMarketplace.sol\":165:1349  contract ProductMarketplace {... */\n  mstore(0x40, 0x80)\n    /* \"contracts/3_ProductMarketplace.sol\":476:534  constructor() {... */\n  callvalue\n  dup1\n  iszero\n  tag_1\n  jumpi\n  0x00\n  dup1\n  revert\ntag_1:\n  pop\n    /* \"contracts/3_ProductMarketplace.sol\":516:526  msg.sender */\n  caller\n    /* \"contracts/3_ProductMarketplace.sol\":500:505  owner */\n  0x01\n  0x00\n    /* \"contracts/3_ProductMarketplace.sol\":500:527  owner = payable(msg.sender) */\n  0x0100\n  exp\n  dup2\n  sload\n  dup2\n  0xffffffffffffffffffffffffffffffffffffffff\n  mul\n  not\n  and\n  swap1\n  dup4\n  0xffffffffffffffffffffffffffffffffffffffff\n  and\n  mul\n  or\n  swap1\n  sstore\n  pop\n    /* \"contracts/3_ProductMarketplace.sol\":165:1349  contract ProductMarketplace {... */\n  dataSize(sub_0)\n  dup1\n  dataOffset(sub_0)\n  0x00\n  codecopy\n  0x00\n  return\nstop\n\nsub_0: assembly {\n        /* \"contracts/3_ProductMarketplace.sol\":165:1349  contract ProductMarketplace {... */\n      mstore(0x40, 0x80)\n      jumpi(tag_1, lt(calldatasize, 0x04))\n      shr(0xe0, calldataload(0x00))\n      dup1\n      0x2ddbd13a\n      eq\n      tag_2\n      jumpi\n      dup1\n      0x7acc0b20\n      eq\n      tag_3\n      jumpi\n      dup1\n      0x8642269e\n      eq\n      tag_4\n      jumpi\n      dup1\n      0x8da5cb5b\n      eq\n      tag_5\n      jumpi\n      dup1\n      0xb15247d9\n      eq\n      tag_6\n      jumpi\n    tag_1:\n      0x00\n      dup1\n      revert\n        /* \"contracts/3_ProductMarketplace.sol\":543:629  function total() public view returns (uint256) {... */\n    tag_2:\n      callvalue\n      dup1\n      iszero\n      tag_7\n      jumpi\n      0x00\n      dup1\n      revert\n    tag_7:\n      pop\n      tag_8\n      tag_9\n      jump\t// in\n    tag_8:\n      mload(0x40)\n      tag_10\n      swap2\n      swap1\n      tag_11\n      jump\t// in\n    tag_10:\n      mload(0x40)\n      dup1\n      swap2\n      sub\n      swap1\n      return\n        /* \"contracts/3_ProductMarketplace.sol\":310:335  Product[] public products */\n    tag_3:\n      callvalue\n      dup1\n      iszero\n      tag_12\n      jumpi\n      0x00\n      dup1\n      revert\n    tag_12:\n      pop\n      tag_13\n      0x04\n      dup1\n      calldatasize\n      sub\n      dup2\n      add\n      swap1\n      tag_14\n      swap2\n      swap1\n      tag_15\n      jump\t// in\n    tag_14:\n      tag_16\n      jump\t// in\n    tag_13:\n      mload(0x40)\n      tag_17\n      swap5\n      swap4\n      swap3\n      swap2\n      swap1\n      tag_18\n      jump\t// in\n    tag_17:\n      mload(0x40)\n      dup1\n      swap2\n      sub\n      swap1\n      return\n        /* \"contracts/3_ProductMarketplace.sol\":931:1347  function buyProduct(uint256 id) public payable {... */\n    tag_4:\n      tag_19\n      0x04\n      dup1\n      calldatasize\n      sub\n      dup2\n      add\n      swap1\n      tag_20\n      swap2\n      swap1\n      tag_15\n      jump\t// in\n    tag_20:\n      tag_21\n      jump\t// in\n    tag_19:\n      stop\n        /* \"contracts/3_ProductMarketplace.sol\":341:369  address payable public owner */\n    tag_5:\n      callvalue\n      dup1\n      iszero\n      tag_22\n      jumpi\n      0x00\n      dup1\n      revert\n    tag_22:\n      pop\n      tag_23\n      tag_24\n      jump\t// in\n    tag_23:\n      mload(0x40)\n      tag_25\n      swap2\n      swap1\n      tag_26\n      jump\t// in\n    tag_25:\n      mload(0x40)\n      dup1\n      swap2\n      sub\n      swap1\n      return\n        /* \"contracts/3_ProductMarketplace.sol\":635:925  function addProduct(string memory name, uint256 price) public {... */\n    tag_6:\n      callvalue\n      dup1\n      iszero\n      tag_27\n      jumpi\n      0x00\n      dup1\n      revert\n    tag_27:\n      pop\n      tag_28\n      0x04\n      dup1\n      calldatasize\n      sub\n      dup2\n      add\n      swap1\n      tag_29\n      swap2\n      swap1\n      tag_30\n      jump\t// in\n    tag_29:\n      tag_31\n      jump\t// in\n    tag_28:\n      stop\n        /* \"contracts/3_ProductMarketplace.sol\":543:629  function total() public view returns (uint256) {... */\n    tag_9:\n        /* \"contracts/3_ProductMarketplace.sol\":581:588  uint256 */\n      0x00\n        /* \"contracts/3_ProductMarketplace.sol\":607:615  products */\n      dup1\n        /* \"contracts/3_ProductMarketplace.sol\":607:622  products.length */\n      dup1\n      sload\n      swap1\n      pop\n        /* \"contracts/3_ProductMarketplace.sol\":600:622  return products.length */\n      swap1\n      pop\n        /* \"contracts/3_ProductMarketplace.sol\":543:629  function total() public view returns (uint256) {... */\n      swap1\n      jump\t// out\n        /* \"contracts/3_ProductMarketplace.sol\":310:335  Product[] public products */\n    tag_16:\n      0x00\n      dup2\n      dup2\n      sload\n      dup2\n      lt\n      tag_33\n      jumpi\n      0x00\n      dup1\n      revert\n    tag_33:\n      swap1\n      0x00\n      mstore\n      keccak256(0x00, 0x20)\n      swap1\n      0x04\n      mul\n      add\n      0x00\n      swap2\n      pop\n      swap1\n      pop\n      dup1\n      0x00\n      add\n      sload\n      swap1\n      dup1\n      0x01\n      add\n      dup1\n      sload\n      tag_35\n      swap1\n      tag_36\n      jump\t// in\n    tag_35:\n      dup1\n      0x1f\n      add\n      0x20\n      dup1\n      swap2\n      div\n      mul\n      0x20\n      add\n      mload(0x40)\n      swap1\n      dup2\n      add\n      0x40\n      mstore\n      dup1\n      swap3\n      swap2\n      swap1\n      dup2\n      dup2\n      mstore\n      0x20\n      add\n      dup3\n      dup1\n      sload\n      tag_37\n      swap1\n      tag_36\n      jump\t// in\n    tag_37:\n      dup1\n      iszero\n      tag_38\n      jumpi\n      dup1\n      0x1f\n      lt\n      tag_39\n      jumpi\n      0x0100\n      dup1\n      dup4\n      sload\n      div\n      mul\n      dup4\n      mstore\n      swap2\n      0x20\n      add\n      swap2\n      jump(tag_38)\n    tag_39:\n      dup3\n      add\n      swap2\n      swap1\n      0x00\n      mstore\n      keccak256(0x00, 0x20)\n      swap1\n    tag_40:\n      dup2\n      sload\n      dup2\n      mstore\n      swap1\n      0x01\n      add\n      swap1\n      0x20\n      add\n      dup1\n      dup4\n      gt\n      tag_40\n      jumpi\n      dup3\n      swap1\n      sub\n      0x1f\n      and\n      dup3\n      add\n      swap2\n    tag_38:\n      pop\n      pop\n      pop\n      pop\n      pop\n      swap1\n      dup1\n      0x02\n      add\n      sload\n      swap1\n      dup1\n      0x03\n      add\n      0x00\n      swap1\n      sload\n      swap1\n      0x0100\n      exp\n      swap1\n      div\n      0xff\n      and\n      swap1\n      pop\n      dup5\n      jump\t// out\n        /* \"contracts/3_ProductMarketplace.sol\":931:1347  function buyProduct(uint256 id) public payable {... */\n    tag_21:\n        /* \"contracts/3_ProductMarketplace.sol\":1001:1009  products */\n      0x00\n        /* \"contracts/3_ProductMarketplace.sol\":1001:1016  products.length */\n      dup1\n      sload\n      swap1\n      pop\n        /* \"contracts/3_ProductMarketplace.sol\":996:998  id */\n      dup2\n        /* \"contracts/3_ProductMarketplace.sol\":996:1016  id < products.length */\n      lt\n        /* \"contracts/3_ProductMarketplace.sol\":988:1047  require(id < products.length,... */\n      tag_42\n      jumpi\n      mload(0x40)\n      0x08c379a000000000000000000000000000000000000000000000000000000000\n      dup2\n      mstore\n      0x04\n      add\n      tag_43\n      swap1\n      tag_44\n      jump\t// in\n    tag_43:\n      mload(0x40)\n      dup1\n      swap2\n      sub\n      swap1\n      revert\n    tag_42:\n        /* \"contracts/3_ProductMarketplace.sol\":1057:1080  Product storage product */\n      0x00\n        /* \"contracts/3_ProductMarketplace.sol\":1083:1091  products */\n      dup1\n        /* \"contracts/3_ProductMarketplace.sol\":1092:1094  id */\n      dup3\n        /* \"contracts/3_ProductMarketplace.sol\":1083:1104  products[id... */\n      dup2\n      sload\n      dup2\n      lt\n      tag_45\n      jumpi\n      tag_46\n      tag_47\n      jump\t// in\n    tag_46:\n    tag_45:\n      swap1\n      0x00\n      mstore\n      keccak256(0x00, 0x20)\n      swap1\n      0x04\n      mul\n      add\n        /* \"contracts/3_ProductMarketplace.sol\":1057:1104  Product storage product = products[id... */\n      swap1\n      pop\n        /* \"contracts/3_ProductMarketplace.sol\":1123:1130  product */\n      dup1\n        /* \"contracts/3_ProductMarketplace.sol\":1123:1135  product.sold */\n      0x03\n      add\n      0x00\n      swap1\n      sload\n      swap1\n      0x0100\n      exp\n      swap1\n      div\n      0xff\n      and\n        /* \"contracts/3_ProductMarketplace.sol\":1122:1135  !product.sold */\n      iszero\n        /* \"contracts/3_ProductMarketplace.sol\":1114:1168  require(!product.sold,... */\n      tag_49\n      jumpi\n      mload(0x40)\n      0x08c379a000000000000000000000000000000000000000000000000000000000\n      dup2\n      mstore\n      0x04\n      add\n      tag_50\n      swap1\n      tag_51\n      jump\t// in\n    tag_50:\n      mload(0x40)\n      dup1\n      swap2\n      sub\n      swap1\n      revert\n    tag_49:\n        /* \"contracts/3_ProductMarketplace.sol\":1199:1206  product */\n      dup1\n        /* \"contracts/3_ProductMarketplace.sol\":1199:1212  product.price */\n      0x02\n      add\n      sload\n        /* \"contracts/3_ProductMarketplace.sol\":1186:1195  msg.value */\n      callvalue\n        /* \"contracts/3_ProductMarketplace.sol\":1186:1212  msg.value == product.price */\n      eq\n        /* \"contracts/3_ProductMarketplace.sol\":1178:1246  require(msg.value == product.price,... */\n      tag_52\n      jumpi\n      mload(0x40)\n      0x08c379a000000000000000000000000000000000000000000000000000000000\n      dup2\n      mstore\n      0x04\n      add\n      tag_53\n      swap1\n      tag_54\n      jump\t// in\n    tag_53:\n      mload(0x40)\n      dup1\n      swap2\n      sub\n      swap1\n      revert\n    tag_52:\n        /* \"contracts/3_ProductMarketplace.sol\":1271:1275  true */\n      0x01\n        /* \"contracts/3_ProductMarketplace.sol\":1256:1263  product */\n      dup2\n        /* \"contracts/3_ProductMarketplace.sol\":1256:1268  product.sold */\n      0x03\n      add\n      0x00\n        /* \"contracts/3_ProductMarketplace.sol\":1256:1275  product.sold = true */\n      0x0100\n      exp\n      dup2\n      sload\n      dup2\n      0xff\n      mul\n      not\n      and\n      swap1\n      dup4\n      iszero\n      iszero\n      mul\n      or\n      swap1\n      sstore\n      pop\n        /* \"contracts/3_ProductMarketplace.sol\":1285:1290  owner */\n      0x01\n      0x00\n      swap1\n      sload\n      swap1\n      0x0100\n      exp\n      swap1\n      div\n      0xffffffffffffffffffffffffffffffffffffffff\n      and\n        /* \"contracts/3_ProductMarketplace.sol\":1285:1299  owner.transfer */\n      0xffffffffffffffffffffffffffffffffffffffff\n      and\n        /* \"contracts/3_ProductMarketplace.sol\":1285:1310  owner.transfer(msg.value) */\n      0x08fc\n        /* \"contracts/3_ProductMarketplace.sol\":1300:1309  msg.value */\n      callvalue\n        /* \"contracts/3_ProductMarketplace.sol\":1285:1310  owner.transfer(msg.value) */\n      swap1\n      dup2\n      iszero\n      mul\n      swap1\n      mload(0x40)\n      0x00\n      mload(0x40)\n      dup1\n      dup4\n      sub\n      dup2\n      dup6\n      dup9\n      dup9\n      call\n      swap4\n      pop\n      pop\n      pop\n      pop\n      iszero\n      dup1\n      iszero\n      tag_56\n      jumpi\n      returndatasize\n      0x00\n      dup1\n      returndatacopy\n      revert(0x00, returndatasize)\n    tag_56:\n      pop\n        /* \"contracts/3_ProductMarketplace.sol\":1325:1340  ProductSold(id) */\n      0x3473c2d98208cbe519d24c7336288e8321fc3849abaca8e91d4aa7bee561cc4f\n        /* \"contracts/3_ProductMarketplace.sol\":1337:1339  id */\n      dup3\n        /* \"contracts/3_ProductMarketplace.sol\":1325:1340  ProductSold(id) */\n      mload(0x40)\n      tag_57\n      swap2\n      swap1\n      tag_11\n      jump\t// in\n    tag_57:\n      mload(0x40)\n      dup1\n      swap2\n      sub\n      swap1\n      log1\n        /* \"contracts/3_ProductMarketplace.sol\":978:1347  {... */\n      pop\n        /* \"contracts/3_ProductMarketplace.sol\":931:1347  function buyProduct(uint256 id) public payable {... */\n      pop\n      jump\t// out\n        /* \"contracts/3_ProductMarketplace.sol\":341:369  address payable public owner */\n    tag_24:\n      0x01\n      0x00\n      swap1\n      sload\n      swap1\n      0x0100\n      exp\n      swap1\n      div\n      0xffffffffffffffffffffffffffffffffffffffff\n      and\n      dup2\n      jump\t// out\n        /* \"contracts/3_ProductMarketplace.sol\":635:925  function addProduct(string memory name, uint256 price) public {... */\n    tag_31:\n        /* \"contracts/3_ProductMarketplace.sol\":729:734  owner */\n      0x01\n      0x00\n      swap1\n      sload\n      swap1\n      0x0100\n      exp\n      swap1\n      div\n      0xffffffffffffffffffffffffffffffffffffffff\n      and\n        /* \"contracts/3_ProductMarketplace.sol\":715:734  msg.sender == owner */\n      0xffffffffffffffffffffffffffffffffffffffff\n      and\n        /* \"contracts/3_ProductMarketplace.sol\":715:725  msg.sender */\n      caller\n        /* \"contracts/3_ProductMarketplace.sol\":715:734  msg.sender == owner */\n      0xffffffffffffffffffffffffffffffffffffffff\n      and\n      eq\n        /* \"contracts/3_ProductMarketplace.sol\":707:780  require(msg.sender == owner,... */\n      tag_59\n      jumpi\n      mload(0x40)\n      0x08c379a000000000000000000000000000000000000000000000000000000000\n      dup2\n      mstore\n      0x04\n      add\n      tag_60\n      swap1\n      tag_61\n      jump\t// in\n    tag_60:\n      mload(0x40)\n      dup1\n      swap2\n      sub\n      swap1\n      revert\n    tag_59:\n        /* \"contracts/3_ProductMarketplace.sol\":790:800  uint256 id */\n      0x00\n        /* \"contracts/3_ProductMarketplace.sol\":803:811  products */\n      dup1\n        /* \"contracts/3_ProductMarketplace.sol\":803:818  products.length */\n      dup1\n      sload\n      swap1\n      pop\n        /* \"contracts/3_ProductMarketplace.sol\":790:818  uint256 id = products.length */\n      swap1\n      pop\n        /* \"contracts/3_ProductMarketplace.sol\":828:836  products */\n      0x00\n        /* \"contracts/3_ProductMarketplace.sol\":842:873  Product(id, name, price, false) */\n      mload(0x40)\n      dup1\n      0x80\n      add\n      0x40\n      mstore\n      dup1\n        /* \"contracts/3_ProductMarketplace.sol\":850:852  id */\n      dup4\n        /* \"contracts/3_ProductMarketplace.sol\":842:873  Product(id, name, price, false) */\n      dup2\n      mstore\n      0x20\n      add\n        /* \"contracts/3_ProductMarketplace.sol\":854:858  name */\n      dup6\n        /* \"contracts/3_ProductMarketplace.sol\":842:873  Product(id, name, price, false) */\n      dup2\n      mstore\n      0x20\n      add\n        /* \"contracts/3_ProductMarketplace.sol\":860:865  price */\n      dup5\n        /* \"contracts/3_ProductMarketplace.sol\":842:873  Product(id, name, price, false) */\n      dup2\n      mstore\n      0x20\n      add\n        /* \"contracts/3_ProductMarketplace.sol\":867:872  false */\n      0x00\n        /* \"contracts/3_ProductMarketplace.sol\":842:873  Product(id, name, price, false) */\n      iszero\n      iszero\n      dup2\n      mstore\n      pop\n        /* \"contracts/3_ProductMarketplace.sol\":828:874  products.push(Product(id, name, price, false)) */\n      swap1\n      dup1\n      0x01\n      dup2\n      sload\n      add\n      dup1\n      dup3\n      sstore\n      dup1\n      swap2\n      pop\n      pop\n      0x01\n      swap1\n      sub\n      swap1\n      0x00\n      mstore\n      keccak256(0x00, 0x20)\n      swap1\n      0x04\n      mul\n      add\n      0x00\n      swap1\n      swap2\n      swap1\n      swap2\n      swap1\n      swap2\n      pop\n      0x00\n      dup3\n      add\n      mload\n      dup2\n      0x00\n      add\n      sstore\n      0x20\n      dup3\n      add\n      mload\n      dup2\n      0x01\n      add\n      swap1\n      dup2\n      tag_63\n      swap2\n      swap1\n      tag_64\n      jump\t// in\n    tag_63:\n      pop\n      0x40\n      dup3\n      add\n      mload\n      dup2\n      0x02\n      add\n      sstore\n      0x60\n      dup3\n      add\n      mload\n      dup2\n      0x03\n      add\n      exp(0x0100, 0x00)\n      dup2\n      sload\n      dup2\n      0xff\n      mul\n      not\n      and\n      swap1\n      dup4\n      iszero\n      iszero\n      mul\n      or\n      swap1\n      sstore\n      pop\n      pop\n      pop\n        /* \"contracts/3_ProductMarketplace.sol\":889:918  ProductAdded(id, name, price) */\n      0xcca07c742c5274e8b72111ba69566aa4442450bfc50bd897ea38d0170d1accfc\n        /* \"contracts/3_ProductMarketplace.sol\":902:904  id */\n      dup2\n        /* \"contracts/3_ProductMarketplace.sol\":906:910  name */\n      dup5\n        /* \"contracts/3_ProductMarketplace.sol\":912:917  price */\n      dup5\n        /* \"contracts/3_ProductMarketplace.sol\":889:918  ProductAdded(id, name, price) */\n      mload(0x40)\n      tag_65\n      swap4\n      swap3\n      swap2\n      swap1\n      tag_66\n      jump\t// in\n    tag_65:\n      mload(0x40)\n      dup1\n      swap2\n      sub\n      swap1\n      log1\n        /* \"contracts/3_ProductMarketplace.sol\":697:925  {... */\n      pop\n        /* \"contracts/3_ProductMarketplace.sol\":635:925  function addProduct(string memory name, uint256 price) public {... */\n      pop\n      pop\n      jump\t// out\n        /* \"#utility.yul\":7:84   */\n    tag_67:\n        /* \"#utility.yul\":44:51   */\n      0x00\n        /* \"#utility.yul\":73:78   */\n      dup2\n        /* \"#utility.yul\":62:78   */\n      swap1\n      pop\n        /* \"#utility.yul\":7:84   */\n      swap2\n      swap1\n      pop\n      jump\t// out\n        /* \"#utility.yul\":90:208   */\n    tag_68:\n        /* \"#utility.yul\":177:201   */\n      tag_120\n        /* \"#utility.yul\":195:200   */\n      dup2\n        /* \"#utility.yul\":177:201   */\n      tag_67\n      jump\t// in\n    tag_120:\n        /* \"#utility.yul\":172:175   */\n      dup3\n        /* \"#utility.yul\":165:202   */\n      mstore\n        /* \"#utility.yul\":90:208   */\n      pop\n      pop\n      jump\t// out\n        /* \"#utility.yul\":214:436   */\n    tag_11:\n        /* \"#utility.yul\":307:311   */\n      0x00\n        /* \"#utility.yul\":345:347   */\n      0x20\n        /* \"#utility.yul\":334:343   */\n      dup3\n        /* \"#utility.yul\":330:348   */\n      add\n        /* \"#utility.yul\":322:348   */\n      swap1\n      pop\n        /* \"#utility.yul\":358:429   */\n      tag_122\n        /* \"#utility.yul\":426:427   */\n      0x00\n        /* \"#utility.yul\":415:424   */\n      dup4\n        /* \"#utility.yul\":411:428   */\n      add\n        /* \"#utility.yul\":402:408   */\n      dup5\n        /* \"#utility.yul\":358:429   */\n      tag_68\n      jump\t// in\n    tag_122:\n        /* \"#utility.yul\":214:436   */\n      swap3\n      swap2\n      pop\n      pop\n      jump\t// out\n        /* \"#utility.yul\":442:517   */\n    tag_69:\n        /* \"#utility.yul\":475:481   */\n      0x00\n        /* \"#utility.yul\":508:510   */\n      0x40\n        /* \"#utility.yul\":502:511   */\n      mload\n        /* \"#utility.yul\":492:511   */\n      swap1\n      pop\n        /* \"#utility.yul\":442:517   */\n      swap1\n      jump\t// out\n        /* \"#utility.yul\":523:640   */\n    tag_70:\n        /* \"#utility.yul\":632:633   */\n      0x00\n        /* \"#utility.yul\":629:630   */\n      dup1\n        /* \"#utility.yul\":622:634   */\n      revert\n        /* \"#utility.yul\":646:763   */\n    tag_71:\n        /* \"#utility.yul\":755:756   */\n      0x00\n        /* \"#utility.yul\":752:753   */\n      dup1\n        /* \"#utility.yul\":745:757   */\n      revert\n        /* \"#utility.yul\":769:891   */\n    tag_72:\n        /* \"#utility.yul\":842:866   */\n      tag_127\n        /* \"#utility.yul\":860:865   */\n      dup2\n        /* \"#utility.yul\":842:866   */\n      tag_67\n      jump\t// in\n    tag_127:\n        /* \"#utility.yul\":835:840   */\n      dup2\n        /* \"#utility.yul\":832:867   */\n      eq\n        /* \"#utility.yul\":822:885   */\n      tag_128\n      jumpi\n        /* \"#utility.yul\":881:882   */\n      0x00\n        /* \"#utility.yul\":878:879   */\n      dup1\n        /* \"#utility.yul\":871:883   */\n      revert\n        /* \"#utility.yul\":822:885   */\n    tag_128:\n        /* \"#utility.yul\":769:891   */\n      pop\n      jump\t// out\n        /* \"#utility.yul\":897:1036   */\n    tag_73:\n        /* \"#utility.yul\":943:948   */\n      0x00\n        /* \"#utility.yul\":981:987   */\n      dup2\n        /* \"#utility.yul\":968:988   */\n      calldataload\n        /* \"#utility.yul\":959:988   */\n      swap1\n      pop\n        /* \"#utility.yul\":997:1030   */\n      tag_130\n        /* \"#utility.yul\":1024:1029   */\n      dup2\n        /* \"#utility.yul\":997:1030   */\n      tag_72\n      jump\t// in\n    tag_130:\n        /* \"#utility.yul\":897:1036   */\n      swap3\n      swap2\n      pop\n      pop\n      jump\t// out\n        /* \"#utility.yul\":1042:1371   */\n    tag_15:\n        /* \"#utility.yul\":1101:1107   */\n      0x00\n        /* \"#utility.yul\":1150:1152   */\n      0x20\n        /* \"#utility.yul\":1138:1147   */\n      dup3\n        /* \"#utility.yul\":1129:1136   */\n      dup5\n        /* \"#utility.yul\":1125:1148   */\n      sub\n        /* \"#utility.yul\":1121:1153   */\n      slt\n        /* \"#utility.yul\":1118:1237   */\n      iszero\n      tag_132\n      jumpi\n        /* \"#utility.yul\":1156:1235   */\n      tag_133\n      tag_70\n      jump\t// in\n    tag_133:\n        /* \"#utility.yul\":1118:1237   */\n    tag_132:\n        /* \"#utility.yul\":1276:1277   */\n      0x00\n        /* \"#utility.yul\":1301:1354   */\n      tag_134\n        /* \"#utility.yul\":1346:1353   */\n      dup5\n        /* \"#utility.yul\":1337:1343   */\n      dup3\n        /* \"#utility.yul\":1326:1335   */\n      dup6\n        /* \"#utility.yul\":1322:1344   */\n      add\n        /* \"#utility.yul\":1301:1354   */\n      tag_73\n      jump\t// in\n    tag_134:\n        /* \"#utility.yul\":1291:1354   */\n      swap2\n      pop\n        /* \"#utility.yul\":1247:1364   */\n      pop\n        /* \"#utility.yul\":1042:1371   */\n      swap3\n      swap2\n      pop\n      pop\n      jump\t// out\n        /* \"#utility.yul\":1377:1476   */\n    tag_74:\n        /* \"#utility.yul\":1429:1435   */\n      0x00\n        /* \"#utility.yul\":1463:1468   */\n      dup2\n        /* \"#utility.yul\":1457:1469   */\n      mload\n        /* \"#utility.yul\":1447:1469   */\n      swap1\n      pop\n        /* \"#utility.yul\":1377:1476   */\n      swap2\n      swap1\n      pop\n      jump\t// out\n        /* \"#utility.yul\":1482:1651   */\n    tag_75:\n        /* \"#utility.yul\":1566:1577   */\n      0x00\n        /* \"#utility.yul\":1600:1606   */\n      dup3\n        /* \"#utility.yul\":1595:1598   */\n      dup3\n        /* \"#utility.yul\":1588:1607   */\n      mstore\n        /* \"#utility.yul\":1640:1644   */\n      0x20\n        /* \"#utility.yul\":1635:1638   */\n      dup3\n        /* \"#utility.yul\":1631:1645   */\n      add\n        /* \"#utility.yul\":1616:1645   */\n      swap1\n      pop\n        /* \"#utility.yul\":1482:1651   */\n      swap3\n      swap2\n      pop\n      pop\n      jump\t// out\n        /* \"#utility.yul\":1657:1903   */\n    tag_76:\n        /* \"#utility.yul\":1738:1739   */\n      0x00\n        /* \"#utility.yul\":1748:1861   */\n    tag_138:\n        /* \"#utility.yul\":1762:1768   */\n      dup4\n        /* \"#utility.yul\":1759:1760   */\n      dup2\n        /* \"#utility.yul\":1756:1769   */\n      lt\n        /* \"#utility.yul\":1748:1861   */\n      iszero\n      tag_140\n      jumpi\n        /* \"#utility.yul\":1847:1848   */\n      dup1\n        /* \"#utility.yul\":1842:1845   */\n      dup3\n        /* \"#utility.yul\":1838:1849   */\n      add\n        /* \"#utility.yul\":1832:1850   */\n      mload\n        /* \"#utility.yul\":1828:1829   */\n      dup2\n        /* \"#utility.yul\":1823:1826   */\n      dup5\n        /* \"#utility.yul\":1819:1830   */\n      add\n        /* \"#utility.yul\":1812:1851   */\n      mstore\n        /* \"#utility.yul\":1784:1786   */\n      0x20\n        /* \"#utility.yul\":1781:1782   */\n      dup2\n        /* \"#utility.yul\":1777:1787   */\n      add\n        /* \"#utility.yul\":1772:1787   */\n      swap1\n      pop\n        /* \"#utility.yul\":1748:1861   */\n      jump(tag_138)\n    tag_140:\n        /* \"#utility.yul\":1895:1896   */\n      0x00\n        /* \"#utility.yul\":1886:1892   */\n      dup5\n        /* \"#utility.yul\":1881:1884   */\n      dup5\n        /* \"#utility.yul\":1877:1893   */\n      add\n        /* \"#utility.yul\":1870:1897   */\n      mstore\n        /* \"#utility.yul\":1719:1903   */\n      pop\n        /* \"#utility.yul\":1657:1903   */\n      pop\n      pop\n      pop\n      jump\t// out\n        /* \"#utility.yul\":1909:2011   */\n    tag_77:\n        /* \"#utility.yul\":1950:1956   */\n      0x00\n        /* \"#utility.yul\":2001:2003   */\n      0x1f\n        /* \"#utility.yul\":1997:2004   */\n      not\n        /* \"#utility.yul\":1992:1994   */\n      0x1f\n        /* \"#utility.yul\":1985:1990   */\n      dup4\n        /* \"#utility.yul\":1981:1995   */\n      add\n        /* \"#utility.yul\":1977:2005   */\n      and\n        /* \"#utility.yul\":1967:2005   */\n      swap1\n      pop\n        /* \"#utility.yul\":1909:2011   */\n      swap2\n      swap1\n      pop\n      jump\t// out\n        /* \"#utility.yul\":2017:2394   */\n    tag_78:\n        /* \"#utility.yul\":2105:2108   */\n      0x00\n        /* \"#utility.yul\":2133:2172   */\n      tag_143\n        /* \"#utility.yul\":2166:2171   */\n      dup3\n        /* \"#utility.yul\":2133:2172   */\n      tag_74\n      jump\t// in\n    tag_143:\n        /* \"#utility.yul\":2188:2259   */\n      tag_144\n        /* \"#utility.yul\":2252:2258   */\n      dup2\n        /* \"#utility.yul\":2247:2250   */\n      dup6\n        /* \"#utility.yul\":2188:2259   */\n      tag_75\n      jump\t// in\n    tag_144:\n        /* \"#utility.yul\":2181:2259   */\n      swap4\n      pop\n        /* \"#utility.yul\":2268:2333   */\n      tag_145\n        /* \"#utility.yul\":2326:2332   */\n      dup2\n        /* \"#utility.yul\":2321:2324   */\n      dup6\n        /* \"#utility.yul\":2314:2318   */\n      0x20\n        /* \"#utility.yul\":2307:2312   */\n      dup7\n        /* \"#utility.yul\":2303:2319   */\n      add\n        /* \"#utility.yul\":2268:2333   */\n      tag_76\n      jump\t// in\n    tag_145:\n        /* \"#utility.yul\":2358:2387   */\n      tag_146\n        /* \"#utility.yul\":2380:2386   */\n      dup2\n        /* \"#utility.yul\":2358:2387   */\n      tag_77\n      jump\t// in\n    tag_146:\n        /* \"#utility.yul\":2353:2356   */\n      dup5\n        /* \"#utility.yul\":2349:2388   */\n      add\n        /* \"#utility.yul\":2342:2388   */\n      swap2\n      pop\n        /* \"#utility.yul\":2109:2394   */\n      pop\n        /* \"#utility.yul\":2017:2394   */\n      swap3\n      swap2\n      pop\n      pop\n      jump\t// out\n        /* \"#utility.yul\":2400:2490   */\n    tag_79:\n        /* \"#utility.yul\":2434:2441   */\n      0x00\n        /* \"#utility.yul\":2477:2482   */\n      dup2\n        /* \"#utility.yul\":2470:2483   */\n      iszero\n        /* \"#utility.yul\":2463:2484   */\n      iszero\n        /* \"#utility.yul\":2452:2484   */\n      swap1\n      pop\n        /* \"#utility.yul\":2400:2490   */\n      swap2\n      swap1\n      pop\n      jump\t// out\n        /* \"#utility.yul\":2496:2605   */\n    tag_80:\n        /* \"#utility.yul\":2577:2598   */\n      tag_149\n        /* \"#utility.yul\":2592:2597   */\n      dup2\n        /* \"#utility.yul\":2577:2598   */\n      tag_79\n      jump\t// in\n    tag_149:\n        /* \"#utility.yul\":2572:2575   */\n      dup3\n        /* \"#utility.yul\":2565:2599   */\n      mstore\n        /* \"#utility.yul\":2496:2605   */\n      pop\n      pop\n      jump\t// out\n        /* \"#utility.yul\":2611:3243   */\n    tag_18:\n        /* \"#utility.yul\":2802:2806   */\n      0x00\n        /* \"#utility.yul\":2840:2843   */\n      0x80\n        /* \"#utility.yul\":2829:2838   */\n      dup3\n        /* \"#utility.yul\":2825:2844   */\n      add\n        /* \"#utility.yul\":2817:2844   */\n      swap1\n      pop\n        /* \"#utility.yul\":2854:2925   */\n      tag_151\n        /* \"#utility.yul\":2922:2923   */\n      0x00\n        /* \"#utility.yul\":2911:2920   */\n      dup4\n        /* \"#utility.yul\":2907:2924   */\n      add\n        /* \"#utility.yul\":2898:2904   */\n      dup8\n        /* \"#utility.yul\":2854:2925   */\n      tag_68\n      jump\t// in\n    tag_151:\n        /* \"#utility.yul\":2972:2981   */\n      dup2\n        /* \"#utility.yul\":2966:2970   */\n      dup2\n        /* \"#utility.yul\":2962:2982   */\n      sub\n        /* \"#utility.yul\":2957:2959   */\n      0x20\n        /* \"#utility.yul\":2946:2955   */\n      dup4\n        /* \"#utility.yul\":2942:2960   */\n      add\n        /* \"#utility.yul\":2935:2983   */\n      mstore\n        /* \"#utility.yul\":3000:3078   */\n      tag_152\n        /* \"#utility.yul\":3073:3077   */\n      dup2\n        /* \"#utility.yul\":3064:3070   */\n      dup7\n        /* \"#utility.yul\":3000:3078   */\n      tag_78\n      jump\t// in\n    tag_152:\n        /* \"#utility.yul\":2992:3078   */\n      swap1\n      pop\n        /* \"#utility.yul\":3088:3160   */\n      tag_153\n        /* \"#utility.yul\":3156:3158   */\n      0x40\n        /* \"#utility.yul\":3145:3154   */\n      dup4\n        /* \"#utility.yul\":3141:3159   */\n      add\n        /* \"#utility.yul\":3132:3138   */\n      dup6\n        /* \"#utility.yul\":3088:3160   */\n      tag_68\n      jump\t// in\n    tag_153:\n        /* \"#utility.yul\":3170:3236   */\n      tag_154\n        /* \"#utility.yul\":3232:3234   */\n      0x60\n        /* \"#utility.yul\":3221:3230   */\n      dup4\n        /* \"#utility.yul\":3217:3235   */\n      add\n        /* \"#utility.yul\":3208:3214   */\n      dup5\n        /* \"#utility.yul\":3170:3236   */\n      tag_80\n      jump\t// in\n    tag_154:\n        /* \"#utility.yul\":2611:3243   */\n      swap6\n      swap5\n      pop\n      pop\n      pop\n      pop\n      pop\n      jump\t// out\n        /* \"#utility.yul\":3249:3375   */\n    tag_81:\n        /* \"#utility.yul\":3286:3293   */\n      0x00\n        /* \"#utility.yul\":3326:3368   */\n      0xffffffffffffffffffffffffffffffffffffffff\n        /* \"#utility.yul\":3319:3324   */\n      dup3\n        /* \"#utility.yul\":3315:3369   */\n      and\n        /* \"#utility.yul\":3304:3369   */\n      swap1\n      pop\n        /* \"#utility.yul\":3249:3375   */\n      swap2\n      swap1\n      pop\n      jump\t// out\n        /* \"#utility.yul\":3381:3485   */\n    tag_82:\n        /* \"#utility.yul\":3426:3433   */\n      0x00\n        /* \"#utility.yul\":3455:3479   */\n      tag_157\n        /* \"#utility.yul\":3473:3478   */\n      dup3\n        /* \"#utility.yul\":3455:3479   */\n      tag_81\n      jump\t// in\n    tag_157:\n        /* \"#utility.yul\":3444:3479   */\n      swap1\n      pop\n        /* \"#utility.yul\":3381:3485   */\n      swap2\n      swap1\n      pop\n      jump\t// out\n        /* \"#utility.yul\":3491:3633   */\n    tag_83:\n        /* \"#utility.yul\":3594:3626   */\n      tag_159\n        /* \"#utility.yul\":3620:3625   */\n      dup2\n        /* \"#utility.yul\":3594:3626   */\n      tag_82\n      jump\t// in\n    tag_159:\n        /* \"#utility.yul\":3589:3592   */\n      dup3\n        /* \"#utility.yul\":3582:3627   */\n      mstore\n        /* \"#utility.yul\":3491:3633   */\n      pop\n      pop\n      jump\t// out\n        /* \"#utility.yul\":3639:3893   */\n    tag_26:\n        /* \"#utility.yul\":3748:3752   */\n      0x00\n        /* \"#utility.yul\":3786:3788   */\n      0x20\n        /* \"#utility.yul\":3775:3784   */\n      dup3\n        /* \"#utility.yul\":3771:3789   */\n      add\n        /* \"#utility.yul\":3763:3789   */\n      swap1\n      pop\n        /* \"#utility.yul\":3799:3886   */\n      tag_161\n        /* \"#utility.yul\":3883:3884   */\n      0x00\n        /* \"#utility.yul\":3872:3881   */\n      dup4\n        /* \"#utility.yul\":3868:3885   */\n      add\n        /* \"#utility.yul\":3859:3865   */\n      dup5\n        /* \"#utility.yul\":3799:3886   */\n      tag_83\n      jump\t// in\n    tag_161:\n        /* \"#utility.yul\":3639:3893   */\n      swap3\n      swap2\n      pop\n      pop\n      jump\t// out\n        /* \"#utility.yul\":3899:4016   */\n    tag_84:\n        /* \"#utility.yul\":4008:4009   */\n      0x00\n        /* \"#utility.yul\":4005:4006   */\n      dup1\n        /* \"#utility.yul\":3998:4010   */\n      revert\n        /* \"#utility.yul\":4022:4139   */\n    tag_85:\n        /* \"#utility.yul\":4131:4132   */\n      0x00\n        /* \"#utility.yul\":4128:4129   */\n      dup1\n        /* \"#utility.yul\":4121:4133   */\n      revert\n        /* \"#utility.yul\":4145:4325   */\n    tag_86:\n        /* \"#utility.yul\":4193:4270   */\n      0x4e487b7100000000000000000000000000000000000000000000000000000000\n        /* \"#utility.yul\":4190:4191   */\n      0x00\n        /* \"#utility.yul\":4183:4271   */\n      mstore\n        /* \"#utility.yul\":4290:4294   */\n      0x41\n        /* \"#utility.yul\":4287:4288   */\n      0x04\n        /* \"#utility.yul\":4280:4295   */\n      mstore\n        /* \"#utility.yul\":4314:4318   */\n      0x24\n        /* \"#utility.yul\":4311:4312   */\n      0x00\n        /* \"#utility.yul\":4304:4319   */\n      revert\n        /* \"#utility.yul\":4331:4612   */\n    tag_87:\n        /* \"#utility.yul\":4414:4441   */\n      tag_166\n        /* \"#utility.yul\":4436:4440   */\n      dup3\n        /* \"#utility.yul\":4414:4441   */\n      tag_77\n      jump\t// in\n    tag_166:\n        /* \"#utility.yul\":4406:4412   */\n      dup2\n        /* \"#utility.yul\":4402:4442   */\n      add\n        /* \"#utility.yul\":4544:4550   */\n      dup2\n        /* \"#utility.yul\":4532:4542   */\n      dup2\n        /* \"#utility.yul\":4529:4551   */\n      lt\n        /* \"#utility.yul\":4508:4526   */\n      0xffffffffffffffff\n        /* \"#utility.yul\":4496:4506   */\n      dup3\n        /* \"#utility.yul\":4493:4527   */\n      gt\n        /* \"#utility.yul\":4490:4552   */\n      or\n        /* \"#utility.yul\":4487:4575   */\n      iszero\n      tag_167\n      jumpi\n        /* \"#utility.yul\":4555:4573   */\n      tag_168\n      tag_86\n      jump\t// in\n    tag_168:\n        /* \"#utility.yul\":4487:4575   */\n    tag_167:\n        /* \"#utility.yul\":4595:4605   */\n      dup1\n        /* \"#utility.yul\":4591:4593   */\n      0x40\n        /* \"#utility.yul\":4584:4606   */\n      mstore\n        /* \"#utility.yul\":4374:4612   */\n      pop\n        /* \"#utility.yul\":4331:4612   */\n      pop\n      pop\n      jump\t// out\n        /* \"#utility.yul\":4618:4747   */\n    tag_88:\n        /* \"#utility.yul\":4652:4658   */\n      0x00\n        /* \"#utility.yul\":4679:4699   */\n      tag_170\n      tag_69\n      jump\t// in\n    tag_170:\n        /* \"#utility.yul\":4669:4699   */\n      swap1\n      pop\n        /* \"#utility.yul\":4708:4741   */\n      tag_171\n        /* \"#utility.yul\":4736:4740   */\n      dup3\n        /* \"#utility.yul\":4728:4734   */\n      dup3\n        /* \"#utility.yul\":4708:4741   */\n      tag_87\n      jump\t// in\n    tag_171:\n        /* \"#utility.yul\":4618:4747   */\n      swap2\n      swap1\n      pop\n      jump\t// out\n        /* \"#utility.yul\":4753:5061   */\n    tag_89:\n        /* \"#utility.yul\":4815:4819   */\n      0x00\n        /* \"#utility.yul\":4905:4923   */\n      0xffffffffffffffff\n        /* \"#utility.yul\":4897:4903   */\n      dup3\n        /* \"#utility.yul\":4894:4924   */\n      gt\n        /* \"#utility.yul\":4891:4947   */\n      iszero\n      tag_173\n      jumpi\n        /* \"#utility.yul\":4927:4945   */\n      tag_174\n      tag_86\n      jump\t// in\n    tag_174:\n        /* \"#utility.yul\":4891:4947   */\n    tag_173:\n        /* \"#utility.yul\":4965:4994   */\n      tag_175\n        /* \"#utility.yul\":4987:4993   */\n      dup3\n        /* \"#utility.yul\":4965:4994   */\n      tag_77\n      jump\t// in\n    tag_175:\n        /* \"#utility.yul\":4957:4994   */\n      swap1\n      pop\n        /* \"#utility.yul\":5049:5053   */\n      0x20\n        /* \"#utility.yul\":5043:5047   */\n      dup2\n        /* \"#utility.yul\":5039:5054   */\n      add\n        /* \"#utility.yul\":5031:5054   */\n      swap1\n      pop\n        /* \"#utility.yul\":4753:5061   */\n      swap2\n      swap1\n      pop\n      jump\t// out\n        /* \"#utility.yul\":5067:5213   */\n    tag_90:\n        /* \"#utility.yul\":5164:5170   */\n      dup3\n        /* \"#utility.yul\":5159:5162   */\n      dup2\n        /* \"#utility.yul\":5154:5157   */\n      dup4\n        /* \"#utility.yul\":5141:5171   */\n      calldatacopy\n        /* \"#utility.yul\":5205:5206   */\n      0x00\n        /* \"#utility.yul\":5196:5202   */\n      dup4\n        /* \"#utility.yul\":5191:5194   */\n      dup4\n        /* \"#utility.yul\":5187:5203   */\n      add\n        /* \"#utility.yul\":5180:5207   */\n      mstore\n        /* \"#utility.yul\":5067:5213   */\n      pop\n      pop\n      pop\n      jump\t// out\n        /* \"#utility.yul\":5219:5644   */\n    tag_91:\n        /* \"#utility.yul\":5297:5302   */\n      0x00\n        /* \"#utility.yul\":5322:5388   */\n      tag_178\n        /* \"#utility.yul\":5338:5387   */\n      tag_179\n        /* \"#utility.yul\":5380:5386   */\n      dup5\n        /* \"#utility.yul\":5338:5387   */\n      tag_89\n      jump\t// in\n    tag_179:\n        /* \"#utility.yul\":5322:5388   */\n      tag_88\n      jump\t// in\n    tag_178:\n        /* \"#utility.yul\":5313:5388   */\n      swap1\n      pop\n        /* \"#utility.yul\":5411:5417   */\n      dup3\n        /* \"#utility.yul\":5404:5409   */\n      dup2\n        /* \"#utility.yul\":5397:5418   */\n      mstore\n        /* \"#utility.yul\":5449:5453   */\n      0x20\n        /* \"#utility.yul\":5442:5447   */\n      dup2\n        /* \"#utility.yul\":5438:5454   */\n      add\n        /* \"#utility.yul\":5487:5490   */\n      dup5\n        /* \"#utility.yul\":5478:5484   */\n      dup5\n        /* \"#utility.yul\":5473:5476   */\n      dup5\n        /* \"#utility.yul\":5469:5485   */\n      add\n        /* \"#utility.yul\":5466:5491   */\n      gt\n        /* \"#utility.yul\":5463:5575   */\n      iszero\n      tag_180\n      jumpi\n        /* \"#utility.yul\":5494:5573   */\n      tag_181\n      tag_85\n      jump\t// in\n    tag_181:\n        /* \"#utility.yul\":5463:5575   */\n    tag_180:\n        /* \"#utility.yul\":5584:5638   */\n      tag_182\n        /* \"#utility.yul\":5631:5637   */\n      dup5\n        /* \"#utility.yul\":5626:5629   */\n      dup3\n        /* \"#utility.yul\":5621:5624   */\n      dup6\n        /* \"#utility.yul\":5584:5638   */\n      tag_90\n      jump\t// in\n    tag_182:\n        /* \"#utility.yul\":5303:5644   */\n      pop\n        /* \"#utility.yul\":5219:5644   */\n      swap4\n      swap3\n      pop\n      pop\n      pop\n      jump\t// out\n        /* \"#utility.yul\":5664:6004   */\n    tag_92:\n        /* \"#utility.yul\":5720:5725   */\n      0x00\n        /* \"#utility.yul\":5769:5772   */\n      dup3\n        /* \"#utility.yul\":5762:5766   */\n      0x1f\n        /* \"#utility.yul\":5754:5760   */\n      dup4\n        /* \"#utility.yul\":5750:5767   */\n      add\n        /* \"#utility.yul\":5746:5773   */\n      slt\n        /* \"#utility.yul\":5736:5858   */\n      tag_184\n      jumpi\n        /* \"#utility.yul\":5777:5856   */\n      tag_185\n      tag_84\n      jump\t// in\n    tag_185:\n        /* \"#utility.yul\":5736:5858   */\n    tag_184:\n        /* \"#utility.yul\":5894:5900   */\n      dup2\n        /* \"#utility.yul\":5881:5901   */\n      calldataload\n        /* \"#utility.yul\":5919:5998   */\n      tag_186\n        /* \"#utility.yul\":5994:5997   */\n      dup5\n        /* \"#utility.yul\":5986:5992   */\n      dup3\n        /* \"#utility.yul\":5979:5983   */\n      0x20\n        /* \"#utility.yul\":5971:5977   */\n      dup7\n        /* \"#utility.yul\":5967:5984   */\n      add\n        /* \"#utility.yul\":5919:5998   */\n      tag_91\n      jump\t// in\n    tag_186:\n        /* \"#utility.yul\":5910:5998   */\n      swap2\n      pop\n        /* \"#utility.yul\":5726:6004   */\n      pop\n        /* \"#utility.yul\":5664:6004   */\n      swap3\n      swap2\n      pop\n      pop\n      jump\t// out\n        /* \"#utility.yul\":6010:6664   */\n    tag_30:\n        /* \"#utility.yul\":6088:6094   */\n      0x00\n        /* \"#utility.yul\":6096:6102   */\n      dup1\n        /* \"#utility.yul\":6145:6147   */\n      0x40\n        /* \"#utility.yul\":6133:6142   */\n      dup4\n        /* \"#utility.yul\":6124:6131   */\n      dup6\n        /* \"#utility.yul\":6120:6143   */\n      sub\n        /* \"#utility.yul\":6116:6148   */\n      slt\n        /* \"#utility.yul\":6113:6232   */\n      iszero\n      tag_188\n      jumpi\n        /* \"#utility.yul\":6151:6230   */\n      tag_189\n      tag_70\n      jump\t// in\n    tag_189:\n        /* \"#utility.yul\":6113:6232   */\n    tag_188:\n        /* \"#utility.yul\":6299:6300   */\n      0x00\n        /* \"#utility.yul\":6288:6297   */\n      dup4\n        /* \"#utility.yul\":6284:6301   */\n      add\n        /* \"#utility.yul\":6271:6302   */\n      calldataload\n        /* \"#utility.yul\":6329:6347   */\n      0xffffffffffffffff\n        /* \"#utility.yul\":6321:6327   */\n      dup2\n        /* \"#utility.yul\":6318:6348   */\n      gt\n        /* \"#utility.yul\":6315:6432   */\n      iszero\n      tag_190\n      jumpi\n        /* \"#utility.yul\":6351:6430   */\n      tag_191\n      tag_71\n      jump\t// in\n    tag_191:\n        /* \"#utility.yul\":6315:6432   */\n    tag_190:\n        /* \"#utility.yul\":6456:6519   */\n      tag_192\n        /* \"#utility.yul\":6511:6518   */\n      dup6\n        /* \"#utility.yul\":6502:6508   */\n      dup3\n        /* \"#utility.yul\":6491:6500   */\n      dup7\n        /* \"#utility.yul\":6487:6509   */\n      add\n        /* \"#utility.yul\":6456:6519   */\n      tag_92\n      jump\t// in\n    tag_192:\n        /* \"#utility.yul\":6446:6519   */\n      swap3\n      pop\n        /* \"#utility.yul\":6242:6529   */\n      pop\n        /* \"#utility.yul\":6568:6570   */\n      0x20\n        /* \"#utility.yul\":6594:6647   */\n      tag_193\n        /* \"#utility.yul\":6639:6646   */\n      dup6\n        /* \"#utility.yul\":6630:6636   */\n      dup3\n        /* \"#utility.yul\":6619:6628   */\n      dup7\n        /* \"#utility.yul\":6615:6637   */\n      add\n        /* \"#utility.yul\":6594:6647   */\n      tag_73\n      jump\t// in\n    tag_193:\n        /* \"#utility.yul\":6584:6647   */\n      swap2\n      pop\n        /* \"#utility.yul\":6539:6657   */\n      pop\n        /* \"#utility.yul\":6010:6664   */\n      swap3\n      pop\n      swap3\n      swap1\n      pop\n      jump\t// out\n        /* \"#utility.yul\":6670:6850   */\n    tag_93:\n        /* \"#utility.yul\":6718:6795   */\n      0x4e487b7100000000000000000000000000000000000000000000000000000000\n        /* \"#utility.yul\":6715:6716   */\n      0x00\n        /* \"#utility.yul\":6708:6796   */\n      mstore\n        /* \"#utility.yul\":6815:6819   */\n      0x22\n        /* \"#utility.yul\":6812:6813   */\n      0x04\n        /* \"#utility.yul\":6805:6820   */\n      mstore\n        /* \"#utility.yul\":6839:6843   */\n      0x24\n        /* \"#utility.yul\":6836:6837   */\n      0x00\n        /* \"#utility.yul\":6829:6844   */\n      revert\n        /* \"#utility.yul\":6856:7176   */\n    tag_36:\n        /* \"#utility.yul\":6900:6906   */\n      0x00\n        /* \"#utility.yul\":6937:6938   */\n      0x02\n        /* \"#utility.yul\":6931:6935   */\n      dup3\n        /* \"#utility.yul\":6927:6939   */\n      div\n        /* \"#utility.yul\":6917:6939   */\n      swap1\n      pop\n        /* \"#utility.yul\":6984:6985   */\n      0x01\n        /* \"#utility.yul\":6978:6982   */\n      dup3\n        /* \"#utility.yul\":6974:6986   */\n      and\n        /* \"#utility.yul\":7005:7023   */\n      dup1\n        /* \"#utility.yul\":6995:7076   */\n      tag_196\n      jumpi\n        /* \"#utility.yul\":7061:7065   */\n      0x7f\n        /* \"#utility.yul\":7053:7059   */\n      dup3\n        /* \"#utility.yul\":7049:7066   */\n      and\n        /* \"#utility.yul\":7039:7066   */\n      swap2\n      pop\n        /* \"#utility.yul\":6995:7076   */\n    tag_196:\n        /* \"#utility.yul\":7123:7125   */\n      0x20\n        /* \"#utility.yul\":7115:7121   */\n      dup3\n        /* \"#utility.yul\":7112:7126   */\n      lt\n        /* \"#utility.yul\":7092:7110   */\n      dup2\n        /* \"#utility.yul\":7089:7127   */\n      sub\n        /* \"#utility.yul\":7086:7170   */\n      tag_197\n      jumpi\n        /* \"#utility.yul\":7142:7160   */\n      tag_198\n      tag_93\n      jump\t// in\n    tag_198:\n        /* \"#utility.yul\":7086:7170   */\n    tag_197:\n        /* \"#utility.yul\":6907:7176   */\n      pop\n        /* \"#utility.yul\":6856:7176   */\n      swap2\n      swap1\n      pop\n      jump\t// out\n        /* \"#utility.yul\":7182:7350   */\n    tag_94:\n        /* \"#utility.yul\":7322:7342   */\n      0x496e76616c69642070726f647563742069640000000000000000000000000000\n        /* \"#utility.yul\":7318:7319   */\n      0x00\n        /* \"#utility.yul\":7310:7316   */\n      dup3\n        /* \"#utility.yul\":7306:7320   */\n      add\n        /* \"#utility.yul\":7299:7343   */\n      mstore\n        /* \"#utility.yul\":7182:7350   */\n      pop\n      jump\t// out\n        /* \"#utility.yul\":7356:7722   */\n    tag_95:\n        /* \"#utility.yul\":7498:7501   */\n      0x00\n        /* \"#utility.yul\":7519:7586   */\n      tag_201\n        /* \"#utility.yul\":7583:7585   */\n      0x12\n        /* \"#utility.yul\":7578:7581   */\n      dup4\n        /* \"#utility.yul\":7519:7586   */\n      tag_75\n      jump\t// in\n    tag_201:\n        /* \"#utility.yul\":7512:7586   */\n      swap2\n      pop\n        /* \"#utility.yul\":7595:7688   */\n      tag_202\n        /* \"#utility.yul\":7684:7687   */\n      dup3\n        /* \"#utility.yul\":7595:7688   */\n      tag_94\n      jump\t// in\n    tag_202:\n        /* \"#utility.yul\":7713:7715   */\n      0x20\n        /* \"#utility.yul\":7708:7711   */\n      dup3\n        /* \"#utility.yul\":7704:7716   */\n      add\n        /* \"#utility.yul\":7697:7716   */\n      swap1\n      pop\n        /* \"#utility.yul\":7356:7722   */\n      swap2\n      swap1\n      pop\n      jump\t// out\n        /* \"#utility.yul\":7728:8147   */\n    tag_44:\n        /* \"#utility.yul\":7894:7898   */\n      0x00\n        /* \"#utility.yul\":7932:7934   */\n      0x20\n        /* \"#utility.yul\":7921:7930   */\n      dup3\n        /* \"#utility.yul\":7917:7935   */\n      add\n        /* \"#utility.yul\":7909:7935   */\n      swap1\n      pop\n        /* \"#utility.yul\":7981:7990   */\n      dup2\n        /* \"#utility.yul\":7975:7979   */\n      dup2\n        /* \"#utility.yul\":7971:7991   */\n      sub\n        /* \"#utility.yul\":7967:7968   */\n      0x00\n        /* \"#utility.yul\":7956:7965   */\n      dup4\n        /* \"#utility.yul\":7952:7969   */\n      add\n        /* \"#utility.yul\":7945:7992   */\n      mstore\n        /* \"#utility.yul\":8009:8140   */\n      tag_204\n        /* \"#utility.yul\":8135:8139   */\n      dup2\n        /* \"#utility.yul\":8009:8140   */\n      tag_95\n      jump\t// in\n    tag_204:\n        /* \"#utility.yul\":8001:8140   */\n      swap1\n      pop\n        /* \"#utility.yul\":7728:8147   */\n      swap2\n      swap1\n      pop\n      jump\t// out\n        /* \"#utility.yul\":8153:8333   */\n    tag_47:\n        /* \"#utility.yul\":8201:8278   */\n      0x4e487b7100000000000000000000000000000000000000000000000000000000\n        /* \"#utility.yul\":8198:8199   */\n      0x00\n        /* \"#utility.yul\":8191:8279   */\n      mstore\n        /* \"#utility.yul\":8298:8302   */\n      0x32\n        /* \"#utility.yul\":8295:8296   */\n      0x04\n        /* \"#utility.yul\":8288:8303   */\n      mstore\n        /* \"#utility.yul\":8322:8326   */\n      0x24\n        /* \"#utility.yul\":8319:8320   */\n      0x00\n        /* \"#utility.yul\":8312:8327   */\n      revert\n        /* \"#utility.yul\":8339:8509   */\n    tag_96:\n        /* \"#utility.yul\":8479:8501   */\n      0x50726f6475637420616c726561647920736f6c64000000000000000000000000\n        /* \"#utility.yul\":8475:8476   */\n      0x00\n        /* \"#utility.yul\":8467:8473   */\n      dup3\n        /* \"#utility.yul\":8463:8477   */\n      add\n        /* \"#utility.yul\":8456:8502   */\n      mstore\n        /* \"#utility.yul\":8339:8509   */\n      pop\n      jump\t// out\n        /* \"#utility.yul\":8515:8881   */\n    tag_97:\n        /* \"#utility.yul\":8657:8660   */\n      0x00\n        /* \"#utility.yul\":8678:8745   */\n      tag_208\n        /* \"#utility.yul\":8742:8744   */\n      0x14\n        /* \"#utility.yul\":8737:8740   */\n      dup4\n        /* \"#utility.yul\":8678:8745   */\n      tag_75\n      jump\t// in\n    tag_208:\n        /* \"#utility.yul\":8671:8745   */\n      swap2\n      pop\n        /* \"#utility.yul\":8754:8847   */\n      tag_209\n        /* \"#utility.yul\":8843:8846   */\n      dup3\n        /* \"#utility.yul\":8754:8847   */\n      tag_96\n      jump\t// in\n    tag_209:\n        /* \"#utility.yul\":8872:8874   */\n      0x20\n        /* \"#utility.yul\":8867:8870   */\n      dup3\n        /* \"#utility.yul\":8863:8875   */\n      add\n        /* \"#utility.yul\":8856:8875   */\n      swap1\n      pop\n        /* \"#utility.yul\":8515:8881   */\n      swap2\n      swap1\n      pop\n      jump\t// out\n        /* \"#utility.yul\":8887:9306   */\n    tag_51:\n        /* \"#utility.yul\":9053:9057   */\n      0x00\n        /* \"#utility.yul\":9091:9093   */\n      0x20\n        /* \"#utility.yul\":9080:9089   */\n      dup3\n        /* \"#utility.yul\":9076:9094   */\n      add\n        /* \"#utility.yul\":9068:9094   */\n      swap1\n      pop\n        /* \"#utility.yul\":9140:9149   */\n      dup2\n        /* \"#utility.yul\":9134:9138   */\n      dup2\n        /* \"#utility.yul\":9130:9150   */\n      sub\n        /* \"#utility.yul\":9126:9127   */\n      0x00\n        /* \"#utility.yul\":9115:9124   */\n      dup4\n        /* \"#utility.yul\":9111:9128   */\n      add\n        /* \"#utility.yul\":9104:9151   */\n      mstore\n        /* \"#utility.yul\":9168:9299   */\n      tag_211\n        /* \"#utility.yul\":9294:9298   */\n      dup2\n        /* \"#utility.yul\":9168:9299   */\n      tag_97\n      jump\t// in\n    tag_211:\n        /* \"#utility.yul\":9160:9299   */\n      swap1\n      pop\n        /* \"#utility.yul\":8887:9306   */\n      swap2\n      swap1\n      pop\n      jump\t// out\n        /* \"#utility.yul\":9312:9483   */\n    tag_98:\n        /* \"#utility.yul\":9452:9475   */\n      0x496e636f727265637420616d6f756e742073656e740000000000000000000000\n        /* \"#utility.yul\":9448:9449   */\n      0x00\n        /* \"#utility.yul\":9440:9446   */\n      dup3\n        /* \"#utility.yul\":9436:9450   */\n      add\n        /* \"#utility.yul\":9429:9476   */\n      mstore\n        /* \"#utility.yul\":9312:9483   */\n      pop\n      jump\t// out\n        /* \"#utility.yul\":9489:9855   */\n    tag_99:\n        /* \"#utility.yul\":9631:9634   */\n      0x00\n        /* \"#utility.yul\":9652:9719   */\n      tag_214\n        /* \"#utility.yul\":9716:9718   */\n      0x15\n        /* \"#utility.yul\":9711:9714   */\n      dup4\n        /* \"#utility.yul\":9652:9719   */\n      tag_75\n      jump\t// in\n    tag_214:\n        /* \"#utility.yul\":9645:9719   */\n      swap2\n      pop\n        /* \"#utility.yul\":9728:9821   */\n      tag_215\n        /* \"#utility.yul\":9817:9820   */\n      dup3\n        /* \"#utility.yul\":9728:9821   */\n      tag_98\n      jump\t// in\n    tag_215:\n        /* \"#utility.yul\":9846:9848   */\n      0x20\n        /* \"#utility.yul\":9841:9844   */\n      dup3\n        /* \"#utility.yul\":9837:9849   */\n      add\n        /* \"#utility.yul\":9830:9849   */\n      swap1\n      pop\n        /* \"#utility.yul\":9489:9855   */\n      swap2\n      swap1\n      pop\n      jump\t// out\n        /* \"#utility.yul\":9861:10280   */\n    tag_54:\n        /* \"#utility.yul\":10027:10031   */\n      0x00\n        /* \"#utility.yul\":10065:10067   */\n      0x20\n        /* \"#utility.yul\":10054:10063   */\n      dup3\n        /* \"#utility.yul\":10050:10068   */\n      add\n        /* \"#utility.yul\":10042:10068   */\n      swap1\n      pop\n        /* \"#utility.yul\":10114:10123   */\n      dup2\n        /* \"#utility.yul\":10108:10112   */\n      dup2\n        /* \"#utility.yul\":10104:10124   */\n      sub\n        /* \"#utility.yul\":10100:10101   */\n      0x00\n        /* \"#utility.yul\":10089:10098   */\n      dup4\n        /* \"#utility.yul\":10085:10102   */\n      add\n        /* \"#utility.yul\":10078:10125   */\n      mstore\n        /* \"#utility.yul\":10142:10273   */\n      tag_217\n        /* \"#utility.yul\":10268:10272   */\n      dup2\n        /* \"#utility.yul\":10142:10273   */\n      tag_99\n      jump\t// in\n    tag_217:\n        /* \"#utility.yul\":10134:10273   */\n      swap1\n      pop\n        /* \"#utility.yul\":9861:10280   */\n      swap2\n      swap1\n      pop\n      jump\t// out\n        /* \"#utility.yul\":10286:10506   */\n    tag_100:\n        /* \"#utility.yul\":10426:10460   */\n      0x4f6e6c7920746865206f776e65722063616e2061646420612070726f64756374\n        /* \"#utility.yul\":10422:10423   */\n      0x00\n        /* \"#utility.yul\":10414:10420   */\n      dup3\n        /* \"#utility.yul\":10410:10424   */\n      add\n        /* \"#utility.yul\":10403:10461   */\n      mstore\n        /* \"#utility.yul\":10495:10498   */\n      0x2100000000000000000000000000000000000000000000000000000000000000\n        /* \"#utility.yul\":10490:10492   */\n      0x20\n        /* \"#utility.yul\":10482:10488   */\n      dup3\n        /* \"#utility.yul\":10478:10493   */\n      add\n        /* \"#utility.yul\":10471:10499   */\n      mstore\n        /* \"#utility.yul\":10286:10506   */\n      pop\n      jump\t// out\n        /* \"#utility.yul\":10512:10878   */\n    tag_101:\n        /* \"#utility.yul\":10654:10657   */\n      0x00\n        /* \"#utility.yul\":10675:10742   */\n      tag_220\n        /* \"#utility.yul\":10739:10741   */\n      0x21\n        /* \"#utility.yul\":10734:10737   */\n      dup4\n        /* \"#utility.yul\":10675:10742   */\n      tag_75\n      jump\t// in\n    tag_220:\n        /* \"#utility.yul\":10668:10742   */\n      swap2\n      pop\n        /* \"#utility.yul\":10751:10844   */\n      tag_221\n        /* \"#utility.yul\":10840:10843   */\n      dup3\n        /* \"#utility.yul\":10751:10844   */\n      tag_100\n      jump\t// in\n    tag_221:\n        /* \"#utility.yul\":10869:10871   */\n      0x40\n        /* \"#utility.yul\":10864:10867   */\n      dup3\n        /* \"#utility.yul\":10860:10872   */\n      add\n        /* \"#utility.yul\":10853:10872   */\n      swap1\n      pop\n        /* \"#utility.yul\":10512:10878   */\n      swap2\n      swap1\n      pop\n      jump\t// out\n        /* \"#utility.yul\":10884:11303   */\n    tag_61:\n        /* \"#utility.yul\":11050:11054   */\n      0x00\n        /* \"#utility.yul\":11088:11090   */\n      0x20\n        /* \"#utility.yul\":11077:11086   */\n      dup3\n        /* \"#utility.yul\":11073:11091   */\n      add\n        /* \"#utility.yul\":11065:11091   */\n      swap1\n      pop\n        /* \"#utility.yul\":11137:11146   */\n      dup2\n        /* \"#utility.yul\":11131:11135   */\n      dup2\n        /* \"#utility.yul\":11127:11147   */\n      sub\n        /* \"#utility.yul\":11123:11124   */\n      0x00\n        /* \"#utility.yul\":11112:11121   */\n      dup4\n        /* \"#utility.yul\":11108:11125   */\n      add\n        /* \"#utility.yul\":11101:11148   */\n      mstore\n        /* \"#utility.yul\":11165:11296   */\n      tag_223\n        /* \"#utility.yul\":11291:11295   */\n      dup2\n        /* \"#utility.yul\":11165:11296   */\n      tag_101\n      jump\t// in\n    tag_223:\n        /* \"#utility.yul\":11157:11296   */\n      swap1\n      pop\n        /* \"#utility.yul\":10884:11303   */\n      swap2\n      swap1\n      pop\n      jump\t// out\n        /* \"#utility.yul\":11309:11450   */\n    tag_102:\n        /* \"#utility.yul\":11358:11362   */\n      0x00\n        /* \"#utility.yul\":11381:11384   */\n      dup2\n        /* \"#utility.yul\":11373:11384   */\n      swap1\n      pop\n        /* \"#utility.yul\":11404:11407   */\n      dup2\n        /* \"#utility.yul\":11401:11402   */\n      0x00\n        /* \"#utility.yul\":11394:11408   */\n      mstore\n        /* \"#utility.yul\":11438:11442   */\n      0x20\n        /* \"#utility.yul\":11435:11436   */\n      0x00\n        /* \"#utility.yul\":11425:11443   */\n      keccak256\n        /* \"#utility.yul\":11417:11443   */\n      swap1\n      pop\n        /* \"#utility.yul\":11309:11450   */\n      swap2\n      swap1\n      pop\n      jump\t// out\n        /* \"#utility.yul\":11456:11549   */\n    tag_103:\n        /* \"#utility.yul\":11493:11499   */\n      0x00\n        /* \"#utility.yul\":11540:11542   */\n      0x20\n        /* \"#utility.yul\":11535:11537   */\n      0x1f\n        /* \"#utility.yul\":11528:11533   */\n      dup4\n        /* \"#utility.yul\":11524:11538   */\n      add\n        /* \"#utility.yul\":11520:11543   */\n      div\n        /* \"#utility.yul\":11510:11543   */\n      swap1\n      pop\n        /* \"#utility.yul\":11456:11549   */\n      swap2\n      swap1\n      pop\n      jump\t// out\n        /* \"#utility.yul\":11555:11662   */\n    tag_104:\n        /* \"#utility.yul\":11599:11607   */\n      0x00\n        /* \"#utility.yul\":11649:11654   */\n      dup3\n        /* \"#utility.yul\":11643:11647   */\n      dup3\n        /* \"#utility.yul\":11639:11655   */\n      shl\n        /* \"#utility.yul\":11618:11655   */\n      swap1\n      pop\n        /* \"#utility.yul\":11555:11662   */\n      swap3\n      swap2\n      pop\n      pop\n      jump\t// out\n        /* \"#utility.yul\":11668:12061   */\n    tag_105:\n        /* \"#utility.yul\":11737:11743   */\n      0x00\n        /* \"#utility.yul\":11787:11788   */\n      0x08\n        /* \"#utility.yul\":11775:11785   */\n      dup4\n        /* \"#utility.yul\":11771:11789   */\n      mul\n        /* \"#utility.yul\":11810:11907   */\n      tag_228\n        /* \"#utility.yul\":11840:11906   */\n      0xffffffffffffffffffffffffffffffffffffffffffffffffffffffffffffffff\n        /* \"#utility.yul\":11829:11838   */\n      dup3\n        /* \"#utility.yul\":11810:11907   */\n      tag_104\n      jump\t// in\n    tag_228:\n        /* \"#utility.yul\":11928:11967   */\n      tag_229\n        /* \"#utility.yul\":11958:11966   */\n      dup7\n        /* \"#utility.yul\":11947:11956   */\n      dup4\n        /* \"#utility.yul\":11928:11967   */\n      tag_104\n      jump\t// in\n    tag_229:\n        /* \"#utility.yul\":11916:11967   */\n      swap6\n      pop\n        /* \"#utility.yul\":12000:12004   */\n      dup1\n        /* \"#utility.yul\":11996:12005   */\n      not\n        /* \"#utility.yul\":11989:11994   */\n      dup5\n        /* \"#utility.yul\":11985:12006   */\n      and\n        /* \"#utility.yul\":11976:12006   */\n      swap4\n      pop\n        /* \"#utility.yul\":12049:12053   */\n      dup1\n        /* \"#utility.yul\":12039:12047   */\n      dup7\n        /* \"#utility.yul\":12035:12054   */\n      and\n        /* \"#utility.yul\":12028:12033   */\n      dup5\n        /* \"#utility.yul\":12025:12055   */\n      or\n        /* \"#utility.yul\":12015:12055   */\n      swap3\n      pop\n        /* \"#utility.yul\":11744:12061   */\n      pop\n      pop\n        /* \"#utility.yul\":11668:12061   */\n      swap4\n      swap3\n      pop\n      pop\n      pop\n      jump\t// out\n        /* \"#utility.yul\":12067:12127   */\n    tag_106:\n        /* \"#utility.yul\":12095:12098   */\n      0x00\n        /* \"#utility.yul\":12116:12121   */\n      dup2\n        /* \"#utility.yul\":12109:12121   */\n      swap1\n      pop\n        /* \"#utility.yul\":12067:12127   */\n      swap2\n      swap1\n      pop\n      jump\t// out\n        /* \"#utility.yul\":12133:12275   */\n    tag_107:\n        /* \"#utility.yul\":12183:12192   */\n      0x00\n        /* \"#utility.yul\":12216:12269   */\n      tag_232\n        /* \"#utility.yul\":12234:12268   */\n      tag_233\n        /* \"#utility.yul\":12243:12267   */\n      tag_234\n        /* \"#utility.yul\":12261:12266   */\n      dup5\n        /* \"#utility.yul\":12243:12267   */\n      tag_67\n      jump\t// in\n    tag_234:\n        /* \"#utility.yul\":12234:12268   */\n      tag_106\n      jump\t// in\n    tag_233:\n        /* \"#utility.yul\":12216:12269   */\n      tag_67\n      jump\t// in\n    tag_232:\n        /* \"#utility.yul\":12203:12269   */\n      swap1\n      pop\n        /* \"#utility.yul\":12133:12275   */\n      swap2\n      swap1\n      pop\n      jump\t// out\n        /* \"#utility.yul\":12281:12356   */\n    tag_108:\n        /* \"#utility.yul\":12324:12327   */\n      0x00\n        /* \"#utility.yul\":12345:12350   */\n      dup2\n        /* \"#utility.yul\":12338:12350   */\n      swap1\n      pop\n        /* \"#utility.yul\":12281:12356   */\n      swap2\n      swap1\n      pop\n      jump\t// out\n        /* \"#utility.yul\":12362:12631   */\n    tag_109:\n        /* \"#utility.yul\":12472:12511   */\n      tag_237\n        /* \"#utility.yul\":12503:12510   */\n      dup4\n        /* \"#utility.yul\":12472:12511   */\n      tag_107\n      jump\t// in\n    tag_237:\n        /* \"#utility.yul\":12533:12624   */\n      tag_238\n        /* \"#utility.yul\":12582:12623   */\n      tag_239\n        /* \"#utility.yul\":12606:12622   */\n      dup3\n        /* \"#utility.yul\":12582:12623   */\n      tag_108\n      jump\t// in\n    tag_239:\n        /* \"#utility.yul\":12574:12580   */\n      dup5\n        /* \"#utility.yul\":12567:12571   */\n      dup5\n        /* \"#utility.yul\":12561:12572   */\n      sload\n        /* \"#utility.yul\":12533:12624   */\n      tag_105\n      jump\t// in\n    tag_238:\n        /* \"#utility.yul\":12527:12531   */\n      dup3\n        /* \"#utility.yul\":12520:12625   */\n      sstore\n        /* \"#utility.yul\":12438:12631   */\n      pop\n        /* \"#utility.yul\":12362:12631   */\n      pop\n      pop\n      pop\n      jump\t// out\n        /* \"#utility.yul\":12637:12710   */\n    tag_110:\n        /* \"#utility.yul\":12682:12685   */\n      0x00\n        /* \"#utility.yul\":12637:12710   */\n      swap1\n      jump\t// out\n        /* \"#utility.yul\":12716:12905   */\n    tag_111:\n        /* \"#utility.yul\":12793:12825   */\n      tag_242\n      tag_110\n      jump\t// in\n    tag_242:\n        /* \"#utility.yul\":12834:12899   */\n      tag_243\n        /* \"#utility.yul\":12892:12898   */\n      dup2\n        /* \"#utility.yul\":12884:12890   */\n      dup5\n        /* \"#utility.yul\":12878:12882   */\n      dup5\n        /* \"#utility.yul\":12834:12899   */\n      tag_109\n      jump\t// in\n    tag_243:\n        /* \"#utility.yul\":12769:12905   */\n      pop\n        /* \"#utility.yul\":12716:12905   */\n      pop\n      pop\n      jump\t// out\n        /* \"#utility.yul\":12911:13097   */\n    tag_112:\n        /* \"#utility.yul\":12971:13091   */\n    tag_245:\n        /* \"#utility.yul\":12988:12991   */\n      dup2\n        /* \"#utility.yul\":12981:12986   */\n      dup2\n        /* \"#utility.yul\":12978:12992   */\n      lt\n        /* \"#utility.yul\":12971:13091   */\n      iszero\n      tag_247\n      jumpi\n        /* \"#utility.yul\":13042:13081   */\n      tag_248\n        /* \"#utility.yul\":13079:13080   */\n      0x00\n        /* \"#utility.yul\":13072:13077   */\n      dup3\n        /* \"#utility.yul\":13042:13081   */\n      tag_111\n      jump\t// in\n    tag_248:\n        /* \"#utility.yul\":13015:13016   */\n      0x01\n        /* \"#utility.yul\":13008:13013   */\n      dup2\n        /* \"#utility.yul\":13004:13017   */\n      add\n        /* \"#utility.yul\":12995:13017   */\n      swap1\n      pop\n        /* \"#utility.yul\":12971:13091   */\n      jump(tag_245)\n    tag_247:\n        /* \"#utility.yul\":12911:13097   */\n      pop\n      pop\n      jump\t// out\n        /* \"#utility.yul\":13103:13646   */\n    tag_113:\n        /* \"#utility.yul\":13204:13206   */\n      0x1f\n        /* \"#utility.yul\":13199:13202   */\n      dup3\n        /* \"#utility.yul\":13196:13207   */\n      gt\n        /* \"#utility.yul\":13193:13639   */\n      iszero\n      tag_250\n      jumpi\n        /* \"#utility.yul\":13238:13276   */\n      tag_251\n        /* \"#utility.yul\":13270:13275   */\n      dup2\n        /* \"#utility.yul\":13238:13276   */\n      tag_102\n      jump\t// in\n    tag_251:\n        /* \"#utility.yul\":13322:13351   */\n      tag_252\n        /* \"#utility.yul\":13340:13350   */\n      dup5\n        /* \"#utility.yul\":13322:13351   */\n      tag_103\n      jump\t// in\n    tag_252:\n        /* \"#utility.yul\":13312:13320   */\n      dup2\n        /* \"#utility.yul\":13308:13352   */\n      add\n        /* \"#utility.yul\":13505:13507   */\n      0x20\n        /* \"#utility.yul\":13493:13503   */\n      dup6\n        /* \"#utility.yul\":13490:13508   */\n      lt\n        /* \"#utility.yul\":13487:13536   */\n      iszero\n      tag_253\n      jumpi\n        /* \"#utility.yul\":13526:13534   */\n      dup2\n        /* \"#utility.yul\":13511:13534   */\n      swap1\n      pop\n        /* \"#utility.yul\":13487:13536   */\n    tag_253:\n        /* \"#utility.yul\":13549:13629   */\n      tag_254\n        /* \"#utility.yul\":13605:13627   */\n      tag_255\n        /* \"#utility.yul\":13623:13626   */\n      dup6\n        /* \"#utility.yul\":13605:13627   */\n      tag_103\n      jump\t// in\n    tag_255:\n        /* \"#utility.yul\":13595:13603   */\n      dup4\n        /* \"#utility.yul\":13591:13628   */\n      add\n        /* \"#utility.yul\":13578:13589   */\n      dup3\n        /* \"#utility.yul\":13549:13629   */\n      tag_112\n      jump\t// in\n    tag_254:\n        /* \"#utility.yul\":13208:13639   */\n      pop\n      pop\n        /* \"#utility.yul\":13193:13639   */\n    tag_250:\n        /* \"#utility.yul\":13103:13646   */\n      pop\n      pop\n      pop\n      jump\t// out\n        /* \"#utility.yul\":13652:13769   */\n    tag_114:\n        /* \"#utility.yul\":13706:13714   */\n      0x00\n        /* \"#utility.yul\":13756:13761   */\n      dup3\n        /* \"#utility.yul\":13750:13754   */\n      dup3\n        /* \"#utility.yul\":13746:13762   */\n      shr\n        /* \"#utility.yul\":13725:13762   */\n      swap1\n      pop\n        /* \"#utility.yul\":13652:13769   */\n      swap3\n      swap2\n      pop\n      pop\n      jump\t// out\n        /* \"#utility.yul\":13775:13944   */\n    tag_115:\n        /* \"#utility.yul\":13819:13825   */\n      0x00\n        /* \"#utility.yul\":13852:13903   */\n      tag_258\n        /* \"#utility.yul\":13900:13901   */\n      0x00\n        /* \"#utility.yul\":13896:13902   */\n      not\n        /* \"#utility.yul\":13888:13893   */\n      dup5\n        /* \"#utility.yul\":13885:13886   */\n      0x08\n        /* \"#utility.yul\":13881:13894   */\n      mul\n        /* \"#utility.yul\":13852:13903   */\n      tag_114\n      jump\t// in\n    tag_258:\n        /* \"#utility.yul\":13848:13904   */\n      not\n        /* \"#utility.yul\":13933:13937   */\n      dup1\n        /* \"#utility.yul\":13927:13931   */\n      dup4\n        /* \"#utility.yul\":13923:13938   */\n      and\n        /* \"#utility.yul\":13913:13938   */\n      swap2\n      pop\n        /* \"#utility.yul\":13826:13944   */\n      pop\n        /* \"#utility.yul\":13775:13944   */\n      swap3\n      swap2\n      pop\n      pop\n      jump\t// out\n        /* \"#utility.yul\":13949:14244   */\n    tag_116:\n        /* \"#utility.yul\":14025:14029   */\n      0x00\n        /* \"#utility.yul\":14171:14200   */\n      tag_260\n        /* \"#utility.yul\":14196:14199   */\n      dup4\n        /* \"#utility.yul\":14190:14194   */\n      dup4\n        /* \"#utility.yul\":14171:14200   */\n      tag_115\n      jump\t// in\n    tag_260:\n        /* \"#utility.yul\":14163:14200   */\n      swap2\n      pop\n        /* \"#utility.yul\":14233:14236   */\n      dup3\n        /* \"#utility.yul\":14230:14231   */\n      0x02\n        /* \"#utility.yul\":14226:14237   */\n      mul\n        /* \"#utility.yul\":14220:14224   */\n      dup3\n        /* \"#utility.yul\":14217:14238   */\n      or\n        /* \"#utility.yul\":14209:14238   */\n      swap1\n      pop\n        /* \"#utility.yul\":13949:14244   */\n      swap3\n      swap2\n      pop\n      pop\n      jump\t// out\n        /* \"#utility.yul\":14249:15644   */\n    tag_64:\n        /* \"#utility.yul\":14366:14403   */\n      tag_262\n        /* \"#utility.yul\":14399:14402   */\n      dup3\n        /* \"#utility.yul\":14366:14403   */\n      tag_74\n      jump\t// in\n    tag_262:\n        /* \"#utility.yul\":14468:14486   */\n      0xffffffffffffffff\n        /* \"#utility.yul\":14460:14466   */\n      dup2\n        /* \"#utility.yul\":14457:14487   */\n      gt\n        /* \"#utility.yul\":14454:14510   */\n      iszero\n      tag_263\n      jumpi\n        /* \"#utility.yul\":14490:14508   */\n      tag_264\n      tag_86\n      jump\t// in\n    tag_264:\n        /* \"#utility.yul\":14454:14510   */\n    tag_263:\n        /* \"#utility.yul\":14534:14572   */\n      tag_265\n        /* \"#utility.yul\":14566:14570   */\n      dup3\n        /* \"#utility.yul\":14560:14571   */\n      sload\n        /* \"#utility.yul\":14534:14572   */\n      tag_36\n      jump\t// in\n    tag_265:\n        /* \"#utility.yul\":14619:14686   */\n      tag_266\n        /* \"#utility.yul\":14679:14685   */\n      dup3\n        /* \"#utility.yul\":14671:14677   */\n      dup3\n        /* \"#utility.yul\":14665:14669   */\n      dup6\n        /* \"#utility.yul\":14619:14686   */\n      tag_113\n      jump\t// in\n    tag_266:\n        /* \"#utility.yul\":14713:14714   */\n      0x00\n        /* \"#utility.yul\":14737:14741   */\n      0x20\n        /* \"#utility.yul\":14724:14741   */\n      swap1\n      pop\n        /* \"#utility.yul\":14769:14771   */\n      0x1f\n        /* \"#utility.yul\":14761:14767   */\n      dup4\n        /* \"#utility.yul\":14758:14772   */\n      gt\n        /* \"#utility.yul\":14786:14787   */\n      0x01\n        /* \"#utility.yul\":14781:15399   */\n      dup2\n      eq\n      tag_268\n      jumpi\n        /* \"#utility.yul\":15443:15444   */\n      0x00\n        /* \"#utility.yul\":15460:15466   */\n      dup5\n        /* \"#utility.yul\":15457:15534   */\n      iszero\n      tag_269\n      jumpi\n        /* \"#utility.yul\":15509:15518   */\n      dup3\n        /* \"#utility.yul\":15504:15507   */\n      dup8\n        /* \"#utility.yul\":15500:15519   */\n      add\n        /* \"#utility.yul\":15494:15520   */\n      mload\n        /* \"#utility.yul\":15485:15520   */\n      swap1\n      pop\n        /* \"#utility.yul\":15457:15534   */\n    tag_269:\n        /* \"#utility.yul\":15560:15627   */\n      tag_270\n        /* \"#utility.yul\":15620:15626   */\n      dup6\n        /* \"#utility.yul\":15613:15618   */\n      dup3\n        /* \"#utility.yul\":15560:15627   */\n      tag_116\n      jump\t// in\n    tag_270:\n        /* \"#utility.yul\":15554:15558   */\n      dup7\n        /* \"#utility.yul\":15547:15628   */\n      sstore\n        /* \"#utility.yul\":15416:15638   */\n      pop\n        /* \"#utility.yul\":14751:15638   */\n      jump(tag_267)\n        /* \"#utility.yul\":14781:15399   */\n    tag_268:\n        /* \"#utility.yul\":14833:14837   */\n      0x1f\n        /* \"#utility.yul\":14829:14838   */\n      not\n        /* \"#utility.yul\":14821:14827   */\n      dup5\n        /* \"#utility.yul\":14817:14839   */\n      and\n        /* \"#utility.yul\":14867:14904   */\n      tag_271\n        /* \"#utility.yul\":14899:14903   */\n      dup7\n        /* \"#utility.yul\":14867:14904   */\n      tag_102\n      jump\t// in\n    tag_271:\n        /* \"#utility.yul\":14926:14927   */\n      0x00\n        /* \"#utility.yul\":14940:15148   */\n    tag_272:\n        /* \"#utility.yul\":14954:14961   */\n      dup3\n        /* \"#utility.yul\":14951:14952   */\n      dup2\n        /* \"#utility.yul\":14948:14962   */\n      lt\n        /* \"#utility.yul\":14940:15148   */\n      iszero\n      tag_274\n      jumpi\n        /* \"#utility.yul\":15033:15042   */\n      dup5\n        /* \"#utility.yul\":15028:15031   */\n      dup10\n        /* \"#utility.yul\":15024:15043   */\n      add\n        /* \"#utility.yul\":15018:15044   */\n      mload\n        /* \"#utility.yul\":15010:15016   */\n      dup3\n        /* \"#utility.yul\":15003:15045   */\n      sstore\n        /* \"#utility.yul\":15084:15085   */\n      0x01\n        /* \"#utility.yul\":15076:15082   */\n      dup3\n        /* \"#utility.yul\":15072:15086   */\n      add\n        /* \"#utility.yul\":15062:15086   */\n      swap2\n      pop\n        /* \"#utility.yul\":15131:15133   */\n      0x20\n        /* \"#utility.yul\":15120:15129   */\n      dup6\n        /* \"#utility.yul\":15116:15134   */\n      add\n        /* \"#utility.yul\":15103:15134   */\n      swap5\n      pop\n        /* \"#utility.yul\":14977:14981   */\n      0x20\n        /* \"#utility.yul\":14974:14975   */\n      dup2\n        /* \"#utility.yul\":14970:14982   */\n      add\n        /* \"#utility.yul\":14965:14982   */\n      swap1\n      pop\n        /* \"#utility.yul\":14940:15148   */\n      jump(tag_272)\n    tag_274:\n        /* \"#utility.yul\":15176:15182   */\n      dup7\n        /* \"#utility.yul\":15167:15174   */\n      dup4\n        /* \"#utility.yul\":15164:15183   */\n      lt\n        /* \"#utility.yul\":15161:15340   */\n      iszero\n      tag_275\n      jumpi\n        /* \"#utility.yul\":15234:15243   */\n      dup5\n        /* \"#utility.yul\":15229:15232   */\n      dup10\n        /* \"#utility.yul\":15225:15244   */\n      add\n        /* \"#utility.yul\":15219:15245   */\n      mload\n        /* \"#utility.yul\":15277:15325   */\n      tag_276\n        /* \"#utility.yul\":15319:15323   */\n      0x1f\n        /* \"#utility.yul\":15311:15317   */\n      dup10\n        /* \"#utility.yul\":15307:15324   */\n      and\n        /* \"#utility.yul\":15296:15305   */\n      dup3\n        /* \"#utility.yul\":15277:15325   */\n      tag_115\n      jump\t// in\n    tag_276:\n        /* \"#utility.yul\":15269:15275   */\n      dup4\n        /* \"#utility.yul\":15262:15326   */\n      sstore\n        /* \"#utility.yul\":15184:15340   */\n      pop\n        /* \"#utility.yul\":15161:15340   */\n    tag_275:\n        /* \"#utility.yul\":15386:15387   */\n      0x01\n        /* \"#utility.yul\":15382:15383   */\n      0x02\n        /* \"#utility.yul\":15374:15380   */\n      dup9\n        /* \"#utility.yul\":15370:15384   */\n      mul\n        /* \"#utility.yul\":15366:15388   */\n      add\n        /* \"#utility.yul\":15360:15364   */\n      dup9\n        /* \"#utility.yul\":15353:15389   */\n      sstore\n        /* \"#utility.yul\":14788:15399   */\n      pop\n      pop\n      pop\n        /* \"#utility.yul\":14751:15638   */\n    tag_267:\n      pop\n        /* \"#utility.yul\":14341:15644   */\n      pop\n      pop\n      pop\n        /* \"#utility.yul\":14249:15644   */\n      pop\n      pop\n      jump\t// out\n        /* \"#utility.yul\":15650:16183   */\n    tag_66:\n        /* \"#utility.yul\":15819:15823   */\n      0x00\n        /* \"#utility.yul\":15857:15859   */\n      0x60\n        /* \"#utility.yul\":15846:15855   */\n      dup3\n        /* \"#utility.yul\":15842:15860   */\n      add\n        /* \"#utility.yul\":15834:15860   */\n      swap1\n      pop\n        /* \"#utility.yul\":15870:15941   */\n      tag_278\n        /* \"#utility.yul\":15938:15939   */\n      0x00\n        /* \"#utility.yul\":15927:15936   */\n      dup4\n        /* \"#utility.yul\":15923:15940   */\n      add\n        /* \"#utility.yul\":15914:15920   */\n      dup7\n        /* \"#utility.yul\":15870:15941   */\n      tag_68\n      jump\t// in\n    tag_278:\n        /* \"#utility.yul\":15988:15997   */\n      dup2\n        /* \"#utility.yul\":15982:15986   */\n      dup2\n        /* \"#utility.yul\":15978:15998   */\n      sub\n        /* \"#utility.yul\":15973:15975   */\n      0x20\n        /* \"#utility.yul\":15962:15971   */\n      dup4\n        /* \"#utility.yul\":15958:15976   */\n      add\n        /* \"#utility.yul\":15951:15999   */\n      mstore\n        /* \"#utility.yul\":16016:16094   */\n      tag_279\n        /* \"#utility.yul\":16089:16093   */\n      dup2\n        /* \"#utility.yul\":16080:16086   */\n      dup6\n        /* \"#utility.yul\":16016:16094   */\n      tag_78\n      jump\t// in\n    tag_279:\n        /* \"#utility.yul\":16008:16094   */\n      swap1\n      pop\n        /* \"#utility.yul\":16104:16176   */\n      tag_280\n        /* \"#utility.yul\":16172:16174   */\n      0x40\n        /* \"#utility.yul\":16161:16170   */\n      dup4\n        /* \"#utility.yul\":16157:16175   */\n      add\n        /* \"#utility.yul\":16148:16154   */\n      dup5\n        /* \"#utility.yul\":16104:16176   */\n      tag_68\n      jump\t// in\n    tag_280:\n        /* \"#utility.yul\":15650:16183   */\n      swap5\n      swap4\n      pop\n      pop\n      pop\n      pop\n      jump\t// out\n\n    auxdata: 0xa264697066735822122077d5a4fbded082860c1ad2902072b945eef55ba33d3502513fdc94992d9d459b64736f6c63430008120033\n}\n",
				"bytecode": {
					"linkReferences": {},
					"object": "608060405234801561001057600080fd5b5033600160006101000a81548173ffffffffffffffffffffffffffffffffffffffff021916908373ffffffffffffffffffffffffffffffffffffffff160217905550610e46806100616000396000f3fe60806040526004361061004a5760003560e01c80632ddbd13a1461004f5780637acc0b201461007a5780638642269e146100ba5780638da5cb5b146100d6578063b15247d914610101575b600080fd5b34801561005b57600080fd5b5061006461012a565b6040516100719190610583565b60405180910390f35b34801561008657600080fd5b506100a1600480360381019061009c91906105de565b610136565b6040516100b194939291906106b6565b60405180910390f35b6100d460048036038101906100cf91906105de565b61020b565b005b3480156100e257600080fd5b506100eb6103d0565b6040516100f89190610743565b60405180910390f35b34801561010d57600080fd5b5061012860048036038101906101239190610893565b6103f6565b005b60008080549050905090565b6000818154811061014657600080fd5b906000526020600020906004020160009150905080600001549080600101805461016f9061091e565b80601f016020809104026020016040519081016040528092919081815260200182805461019b9061091e565b80156101e85780601f106101bd576101008083540402835291602001916101e8565b820191906000526020600020905b8154815290600101906020018083116101cb57829003601f168201915b5050505050908060020154908060030160009054906101000a900460ff16905084565b6000805490508110610252576040517f08c379a00000000000000000000000000000000000000000000000000000000081526004016102499061099b565b60405180910390fd5b6000808281548110610267576102666109bb565b5b906000526020600020906004020190508060030160009054906101000a900460ff16156102c9576040517f08c379a00000000000000000000000000000000000000000000000000000000081526004016102c090610a36565b60405180910390fd5b8060020154341461030f576040517f08c379a000000000000000000000000000000000000000000000000000000000815260040161030690610aa2565b60405180910390fd5b60018160030160006101000a81548160ff021916908315150217905550600160009054906101000a900473ffffffffffffffffffffffffffffffffffffffff1673ffffffffffffffffffffffffffffffffffffffff166108fc349081150290604051600060405180830381858888f19350505050158015610394573d6000803e3d6000fd5b507f3473c2d98208cbe519d24c7336288e8321fc3849abaca8e91d4aa7bee561cc4f826040516103c49190610583565b60405180910390a15050565b600160009054906101000a900473ffffffffffffffffffffffffffffffffffffffff1681565b600160009054906101000a900473ffffffffffffffffffffffffffffffffffffffff1673ffffffffffffffffffffffffffffffffffffffff163373ffffffffffffffffffffffffffffffffffffffff1614610486576040517f08c379a000000000000000000000000000000000000000000000000000000000815260040161047d90610b34565b60405180910390fd5b600080805490509050600060405180608001604052808381526020018581526020018481526020016000151581525090806001815401808255809150506001900390600052602060002090600402016000909190919091506000820151816000015560208201518160010190816104fd9190610d00565b506040820151816002015560608201518160030160006101000a81548160ff02191690831515021790555050507fcca07c742c5274e8b72111ba69566aa4442450bfc50bd897ea38d0170d1accfc81848460405161055d93929190610dd2565b60405180910390a1505050565b6000819050919050565b61057d8161056a565b82525050565b60006020820190506105986000830184610574565b92915050565b6000604051905090565b600080fd5b600080fd5b6105bb8161056a565b81146105c657600080fd5b50565b6000813590506105d8816105b2565b92915050565b6000602082840312156105f4576105f36105a8565b5b6000610602848285016105c9565b91505092915050565b600081519050919050565b600082825260208201905092915050565b60005b8381101561064557808201518184015260208101905061062a565b60008484015250505050565b6000601f19601f8301169050919050565b600061066d8261060b565b6106778185610616565b9350610687818560208601610627565b61069081610651565b840191505092915050565b60008115159050919050565b6106b08161069b565b82525050565b60006080820190506106cb6000830187610574565b81810360208301526106dd8186610662565b90506106ec6040830185610574565b6106f960608301846106a7565b95945050505050565b600073ffffffffffffffffffffffffffffffffffffffff82169050919050565b600061072d82610702565b9050919050565b61073d81610722565b82525050565b60006020820190506107586000830184610734565b92915050565b600080fd5b600080fd5b7f4e487b7100000000000000000000000000000000000000000000000000000000600052604160045260246000fd5b6107a082610651565b810181811067ffffffffffffffff821117156107bf576107be610768565b5b80604052505050565b60006107d261059e565b90506107de8282610797565b919050565b600067ffffffffffffffff8211156107fe576107fd610768565b5b61080782610651565b9050602081019050919050565b82818337600083830152505050565b6000610836610831846107e3565b6107c8565b90508281526020810184848401111561085257610851610763565b5b61085d848285610814565b509392505050565b600082601f83011261087a5761087961075e565b5b813561088a848260208601610823565b91505092915050565b600080604083850312156108aa576108a96105a8565b5b600083013567ffffffffffffffff8111156108c8576108c76105ad565b5b6108d485828601610865565b92505060206108e5858286016105c9565b9150509250929050565b7f4e487b7100000000000000000000000000000000000000000000000000000000600052602260045260246000fd5b6000600282049050600182168061093657607f821691505b602082108103610949576109486108ef565b5b50919050565b7f496e76616c69642070726f647563742069640000000000000000000000000000600082015250565b6000610985601283610616565b91506109908261094f565b602082019050919050565b600060208201905081810360008301526109b481610978565b9050919050565b7f4e487b7100000000000000000000000000000000000000000000000000000000600052603260045260246000fd5b7f50726f6475637420616c726561647920736f6c64000000000000000000000000600082015250565b6000610a20601483610616565b9150610a2b826109ea565b602082019050919050565b60006020820190508181036000830152610a4f81610a13565b9050919050565b7f496e636f727265637420616d6f756e742073656e740000000000000000000000600082015250565b6000610a8c601583610616565b9150610a9782610a56565b602082019050919050565b60006020820190508181036000830152610abb81610a7f565b9050919050565b7f4f6e6c7920746865206f776e65722063616e2061646420612070726f6475637460008201527f2100000000000000000000000000000000000000000000000000000000000000602082015250565b6000610b1e602183610616565b9150610b2982610ac2565b604082019050919050565b60006020820190508181036000830152610b4d81610b11565b9050919050565b60008190508160005260206000209050919050565b60006020601f8301049050919050565b600082821b905092915050565b600060088302610bb67fffffffffffffffffffffffffffffffffffffffffffffffffffffffffffffffff82610b79565b610bc08683610b79565b95508019841693508086168417925050509392505050565b6000819050919050565b6000610bfd610bf8610bf38461056a565b610bd8565b61056a565b9050919050565b6000819050919050565b610c1783610be2565b610c2b610c2382610c04565b848454610b86565b825550505050565b600090565b610c40610c33565b610c4b818484610c0e565b505050565b5b81811015610c6f57610c64600082610c38565b600181019050610c51565b5050565b601f821115610cb457610c8581610b54565b610c8e84610b69565b81016020851015610c9d578190505b610cb1610ca985610b69565b830182610c50565b50505b505050565b600082821c905092915050565b6000610cd760001984600802610cb9565b1980831691505092915050565b6000610cf08383610cc6565b9150826002028217905092915050565b610d098261060b565b67ffffffffffffffff811115610d2257610d21610768565b5b610d2c825461091e565b610d37828285610c73565b600060209050601f831160018114610d6a5760008415610d58578287015190505b610d628582610ce4565b865550610dca565b601f198416610d7886610b54565b60005b82811015610da057848901518255600182019150602085019450602081019050610d7b565b86831015610dbd5784890151610db9601f891682610cc6565b8355505b6001600288020188555050505b505050505050565b6000606082019050610de76000830186610574565b8181036020830152610df98185610662565b9050610e086040830184610574565b94935050505056fea264697066735822122077d5a4fbded082860c1ad2902072b945eef55ba33d3502513fdc94992d9d459b64736f6c63430008120033",
					"opcodes": "PUSH1 0x80 PUSH1 0x40 MSTORE CALLVALUE DUP1 ISZERO PUSH2 0x10 JUMPI PUSH1 0x0 DUP1 REVERT JUMPDEST POP CALLER PUSH1 0x1 PUSH1 0x0 PUSH2 0x100 EXP DUP2 SLOAD DUP2 PUSH20 0xFFFFFFFFFFFFFFFFFFFFFFFFFFFFFFFFFFFFFFFF MUL NOT AND SWAP1 DUP4 PUSH20 0xFFFFFFFFFFFFFFFFFFFFFFFFFFFFFFFFFFFFFFFF AND MUL OR SWAP1 SSTORE POP PUSH2 0xE46 DUP1 PUSH2 0x61 PUSH1 0x0 CODECOPY PUSH1 0x0 RETURN INVALID PUSH1 0x80 PUSH1 0x40 MSTORE PUSH1 0x4 CALLDATASIZE LT PUSH2 0x4A JUMPI PUSH1 0x0 CALLDATALOAD PUSH1 0xE0 SHR DUP1 PUSH4 0x2DDBD13A EQ PUSH2 0x4F JUMPI DUP1 PUSH4 0x7ACC0B20 EQ PUSH2 0x7A JUMPI DUP1 PUSH4 0x8642269E EQ PUSH2 0xBA JUMPI DUP1 PUSH4 0x8DA5CB5B EQ PUSH2 0xD6 JUMPI DUP1 PUSH4 0xB15247D9 EQ PUSH2 0x101 JUMPI JUMPDEST PUSH1 0x0 DUP1 REVERT JUMPDEST CALLVALUE DUP1 ISZERO PUSH2 0x5B JUMPI PUSH1 0x0 DUP1 REVERT JUMPDEST POP PUSH2 0x64 PUSH2 0x12A JUMP JUMPDEST PUSH1 0x40 MLOAD PUSH2 0x71 SWAP2 SWAP1 PUSH2 0x583 JUMP JUMPDEST PUSH1 0x40 MLOAD DUP1 SWAP2 SUB SWAP1 RETURN JUMPDEST CALLVALUE DUP1 ISZERO PUSH2 0x86 JUMPI PUSH1 0x0 DUP1 REVERT JUMPDEST POP PUSH2 0xA1 PUSH1 0x4 DUP1 CALLDATASIZE SUB DUP2 ADD SWAP1 PUSH2 0x9C SWAP2 SWAP1 PUSH2 0x5DE JUMP JUMPDEST PUSH2 0x136 JUMP JUMPDEST PUSH1 0x40 MLOAD PUSH2 0xB1 SWAP5 SWAP4 SWAP3 SWAP2 SWAP1 PUSH2 0x6B6 JUMP JUMPDEST PUSH1 0x40 MLOAD DUP1 SWAP2 SUB SWAP1 RETURN JUMPDEST PUSH2 0xD4 PUSH1 0x4 DUP1 CALLDATASIZE SUB DUP2 ADD SWAP1 PUSH2 0xCF SWAP2 SWAP1 PUSH2 0x5DE JUMP JUMPDEST PUSH2 0x20B JUMP JUMPDEST STOP JUMPDEST CALLVALUE DUP1 ISZERO PUSH2 0xE2 JUMPI PUSH1 0x0 DUP1 REVERT JUMPDEST POP PUSH2 0xEB PUSH2 0x3D0 JUMP JUMPDEST PUSH1 0x40 MLOAD PUSH2 0xF8 SWAP2 SWAP1 PUSH2 0x743 JUMP JUMPDEST PUSH1 0x40 MLOAD DUP1 SWAP2 SUB SWAP1 RETURN JUMPDEST CALLVALUE DUP1 ISZERO PUSH2 0x10D JUMPI PUSH1 0x0 DUP1 REVERT JUMPDEST POP PUSH2 0x128 PUSH1 0x4 DUP1 CALLDATASIZE SUB DUP2 ADD SWAP1 PUSH2 0x123 SWAP2 SWAP1 PUSH2 0x893 JUMP JUMPDEST PUSH2 0x3F6 JUMP JUMPDEST STOP JUMPDEST PUSH1 0x0 DUP1 DUP1 SLOAD SWAP1 POP SWAP1 POP SWAP1 JUMP JUMPDEST PUSH1 0x0 DUP2 DUP2 SLOAD DUP2 LT PUSH2 0x146 JUMPI PUSH1 0x0 DUP1 REVERT JUMPDEST SWAP1 PUSH1 0x0 MSTORE PUSH1 0x20 PUSH1 0x0 KECCAK256 SWAP1 PUSH1 0x4 MUL ADD PUSH1 0x0 SWAP2 POP SWAP1 POP DUP1 PUSH1 0x0 ADD SLOAD SWAP1 DUP1 PUSH1 0x1 ADD DUP1 SLOAD PUSH2 0x16F SWAP1 PUSH2 0x91E JUMP JUMPDEST DUP1 PUSH1 0x1F ADD PUSH1 0x20 DUP1 SWAP2 DIV MUL PUSH1 0x20 ADD PUSH1 0x40 MLOAD SWAP1 DUP2 ADD PUSH1 0x40 MSTORE DUP1 SWAP3 SWAP2 SWAP1 DUP2 DUP2 MSTORE PUSH1 0x20 ADD DUP3 DUP1 SLOAD PUSH2 0x19B SWAP1 PUSH2 0x91E JUMP JUMPDEST DUP1 ISZERO PUSH2 0x1E8 JUMPI DUP1 PUSH1 0x1F LT PUSH2 0x1BD JUMPI PUSH2 0x100 DUP1 DUP4 SLOAD DIV MUL DUP4 MSTORE SWAP2 PUSH1 0x20 ADD SWAP2 PUSH2 0x1E8 JUMP JUMPDEST DUP3 ADD SWAP2 SWAP1 PUSH1 0x0 MSTORE PUSH1 0x20 PUSH1 0x0 KECCAK256 SWAP1 JUMPDEST DUP2 SLOAD DUP2 MSTORE SWAP1 PUSH1 0x1 ADD SWAP1 PUSH1 0x20 ADD DUP1 DUP4 GT PUSH2 0x1CB JUMPI DUP3 SWAP1 SUB PUSH1 0x1F AND DUP3 ADD SWAP2 JUMPDEST POP POP POP POP POP SWAP1 DUP1 PUSH1 0x2 ADD SLOAD SWAP1 DUP1 PUSH1 0x3 ADD PUSH1 0x0 SWAP1 SLOAD SWAP1 PUSH2 0x100 EXP SWAP1 DIV PUSH1 0xFF AND SWAP1 POP DUP5 JUMP JUMPDEST PUSH1 0x0 DUP1 SLOAD SWAP1 POP DUP2 LT PUSH2 0x252 JUMPI PUSH1 0x40 MLOAD PUSH32 0x8C379A000000000000000000000000000000000000000000000000000000000 DUP2 MSTORE PUSH1 0x4 ADD PUSH2 0x249 SWAP1 PUSH2 0x99B JUMP JUMPDEST PUSH1 0x40 MLOAD DUP1 SWAP2 SUB SWAP1 REVERT JUMPDEST PUSH1 0x0 DUP1 DUP3 DUP2 SLOAD DUP2 LT PUSH2 0x267 JUMPI PUSH2 0x266 PUSH2 0x9BB JUMP JUMPDEST JUMPDEST SWAP1 PUSH1 0x0 MSTORE PUSH1 0x20 PUSH1 0x0 KECCAK256 SWAP1 PUSH1 0x4 MUL ADD SWAP1 POP DUP1 PUSH1 0x3 ADD PUSH1 0x0 SWAP1 SLOAD SWAP1 PUSH2 0x100 EXP SWAP1 DIV PUSH1 0xFF AND ISZERO PUSH2 0x2C9 JUMPI PUSH1 0x40 MLOAD PUSH32 0x8C379A000000000000000000000000000000000000000000000000000000000 DUP2 MSTORE PUSH1 0x4 ADD PUSH2 0x2C0 SWAP1 PUSH2 0xA36 JUMP JUMPDEST PUSH1 0x40 MLOAD DUP1 SWAP2 SUB SWAP1 REVERT JUMPDEST DUP1 PUSH1 0x2 ADD SLOAD CALLVALUE EQ PUSH2 0x30F JUMPI PUSH1 0x40 MLOAD PUSH32 0x8C379A000000000000000000000000000000000000000000000000000000000 DUP2 MSTORE PUSH1 0x4 ADD PUSH2 0x306 SWAP1 PUSH2 0xAA2 JUMP JUMPDEST PUSH1 0x40 MLOAD DUP1 SWAP2 SUB SWAP1 REVERT JUMPDEST PUSH1 0x1 DUP2 PUSH1 0x3 ADD PUSH1 0x0 PUSH2 0x100 EXP DUP2 SLOAD DUP2 PUSH1 0xFF MUL NOT AND SWAP1 DUP4 ISZERO ISZERO MUL OR SWAP1 SSTORE POP PUSH1 0x1 PUSH1 0x0 SWAP1 SLOAD SWAP1 PUSH2 0x100 EXP SWAP1 DIV PUSH20 0xFFFFFFFFFFFFFFFFFFFFFFFFFFFFFFFFFFFFFFFF AND PUSH20 0xFFFFFFFFFFFFFFFFFFFFFFFFFFFFFFFFFFFFFFFF AND PUSH2 0x8FC CALLVALUE SWAP1 DUP2 ISZERO MUL SWAP1 PUSH1 0x40 MLOAD PUSH1 0x0 PUSH1 0x40 MLOAD DUP1 DUP4 SUB DUP2 DUP6 DUP9 DUP9 CALL SWAP4 POP POP POP POP ISZERO DUP1 ISZERO PUSH2 0x394 JUMPI RETURNDATASIZE PUSH1 0x0 DUP1 RETURNDATACOPY RETURNDATASIZE PUSH1 0x0 REVERT JUMPDEST POP PUSH32 0x3473C2D98208CBE519D24C7336288E8321FC3849ABACA8E91D4AA7BEE561CC4F DUP3 PUSH1 0x40 MLOAD PUSH2 0x3C4 SWAP2 SWAP1 PUSH2 0x583 JUMP JUMPDEST PUSH1 0x40 MLOAD DUP1 SWAP2 SUB SWAP1 LOG1 POP POP JUMP JUMPDEST PUSH1 0x1 PUSH1 0x0 SWAP1 SLOAD SWAP1 PUSH2 0x100 EXP SWAP1 DIV PUSH20 0xFFFFFFFFFFFFFFFFFFFFFFFFFFFFFFFFFFFFFFFF AND DUP2 JUMP JUMPDEST PUSH1 0x1 PUSH1 0x0 SWAP1 SLOAD SWAP1 PUSH2 0x100 EXP SWAP1 DIV PUSH20 0xFFFFFFFFFFFFFFFFFFFFFFFFFFFFFFFFFFFFFFFF AND PUSH20 0xFFFFFFFFFFFFFFFFFFFFFFFFFFFFFFFFFFFFFFFF AND CALLER PUSH20 0xFFFFFFFFFFFFFFFFFFFFFFFFFFFFFFFFFFFFFFFF AND EQ PUSH2 0x486 JUMPI PUSH1 0x40 MLOAD PUSH32 0x8C379A000000000000000000000000000000000000000000000000000000000 DUP2 MSTORE PUSH1 0x4 ADD PUSH2 0x47D SWAP1 PUSH2 0xB34 JUMP JUMPDEST PUSH1 0x40 MLOAD DUP1 SWAP2 SUB SWAP1 REVERT JUMPDEST PUSH1 0x0 DUP1 DUP1 SLOAD SWAP1 POP SWAP1 POP PUSH1 0x0 PUSH1 0x40 MLOAD DUP1 PUSH1 0x80 ADD PUSH1 0x40 MSTORE DUP1 DUP4 DUP2 MSTORE PUSH1 0x20 ADD DUP6 DUP2 MSTORE PUSH1 0x20 ADD DUP5 DUP2 MSTORE PUSH1 0x20 ADD PUSH1 0x0 ISZERO ISZERO DUP2 MSTORE POP SWAP1 DUP1 PUSH1 0x1 DUP2 SLOAD ADD DUP1 DUP3 SSTORE DUP1 SWAP2 POP POP PUSH1 0x1 SWAP1 SUB SWAP1 PUSH1 0x0 MSTORE PUSH1 0x20 PUSH1 0x0 KECCAK256 SWAP1 PUSH1 0x4 MUL ADD PUSH1 0x0 SWAP1 SWAP2 SWAP1 SWAP2 SWAP1 SWAP2 POP PUSH1 0x0 DUP3 ADD MLOAD DUP2 PUSH1 0x0 ADD SSTORE PUSH1 0x20 DUP3 ADD MLOAD DUP2 PUSH1 0x1 ADD SWAP1 DUP2 PUSH2 0x4FD SWAP2 SWAP1 PUSH2 0xD00 JUMP JUMPDEST POP PUSH1 0x40 DUP3 ADD MLOAD DUP2 PUSH1 0x2 ADD SSTORE PUSH1 0x60 DUP3 ADD MLOAD DUP2 PUSH1 0x3 ADD PUSH1 0x0 PUSH2 0x100 EXP DUP2 SLOAD DUP2 PUSH1 0xFF MUL NOT AND SWAP1 DUP4 ISZERO ISZERO MUL OR SWAP1 SSTORE POP POP POP PUSH32 0xCCA07C742C5274E8B72111BA69566AA4442450BFC50BD897EA38D0170D1ACCFC DUP2 DUP5 DUP5 PUSH1 0x40 MLOAD PUSH2 0x55D SWAP4 SWAP3 SWAP2 SWAP1 PUSH2 0xDD2 JUMP JUMPDEST PUSH1 0x40 MLOAD DUP1 SWAP2 SUB SWAP1 LOG1 POP POP POP JUMP JUMPDEST PUSH1 0x0 DUP2 SWAP1 POP SWAP2 SWAP1 POP JUMP JUMPDEST PUSH2 0x57D DUP2 PUSH2 0x56A JUMP JUMPDEST DUP3 MSTORE POP POP JUMP JUMPDEST PUSH1 0x0 PUSH1 0x20 DUP3 ADD SWAP1 POP PUSH2 0x598 PUSH1 0x0 DUP4 ADD DUP5 PUSH2 0x574 JUMP JUMPDEST SWAP3 SWAP2 POP POP JUMP JUMPDEST PUSH1 0x0 PUSH1 0x40 MLOAD SWAP1 POP SWAP1 JUMP JUMPDEST PUSH1 0x0 DUP1 REVERT JUMPDEST PUSH1 0x0 DUP1 REVERT JUMPDEST PUSH2 0x5BB DUP2 PUSH2 0x56A JUMP JUMPDEST DUP2 EQ PUSH2 0x5C6 JUMPI PUSH1 0x0 DUP1 REVERT JUMPDEST POP JUMP JUMPDEST PUSH1 0x0 DUP2 CALLDATALOAD SWAP1 POP PUSH2 0x5D8 DUP2 PUSH2 0x5B2 JUMP JUMPDEST SWAP3 SWAP2 POP POP JUMP JUMPDEST PUSH1 0x0 PUSH1 0x20 DUP3 DUP5 SUB SLT ISZERO PUSH2 0x5F4 JUMPI PUSH2 0x5F3 PUSH2 0x5A8 JUMP JUMPDEST JUMPDEST PUSH1 0x0 PUSH2 0x602 DUP5 DUP3 DUP6 ADD PUSH2 0x5C9 JUMP JUMPDEST SWAP2 POP POP SWAP3 SWAP2 POP POP JUMP JUMPDEST PUSH1 0x0 DUP2 MLOAD SWAP1 POP SWAP2 SWAP1 POP JUMP JUMPDEST PUSH1 0x0 DUP3 DUP3 MSTORE PUSH1 0x20 DUP3 ADD SWAP1 POP SWAP3 SWAP2 POP POP JUMP JUMPDEST PUSH1 0x0 JUMPDEST DUP4 DUP2 LT ISZERO PUSH2 0x645 JUMPI DUP1 DUP3 ADD MLOAD DUP2 DUP5 ADD MSTORE PUSH1 0x20 DUP2 ADD SWAP1 POP PUSH2 0x62A JUMP JUMPDEST PUSH1 0x0 DUP5 DUP5 ADD MSTORE POP POP POP POP JUMP JUMPDEST PUSH1 0x0 PUSH1 0x1F NOT PUSH1 0x1F DUP4 ADD AND SWAP1 POP SWAP2 SWAP1 POP JUMP JUMPDEST PUSH1 0x0 PUSH2 0x66D DUP3 PUSH2 0x60B JUMP JUMPDEST PUSH2 0x677 DUP2 DUP6 PUSH2 0x616 JUMP JUMPDEST SWAP4 POP PUSH2 0x687 DUP2 DUP6 PUSH1 0x20 DUP7 ADD PUSH2 0x627 JUMP JUMPDEST PUSH2 0x690 DUP2 PUSH2 0x651 JUMP JUMPDEST DUP5 ADD SWAP2 POP POP SWAP3 SWAP2 POP POP JUMP JUMPDEST PUSH1 0x0 DUP2 ISZERO ISZERO SWAP1 POP SWAP2 SWAP1 POP JUMP JUMPDEST PUSH2 0x6B0 DUP2 PUSH2 0x69B JUMP JUMPDEST DUP3 MSTORE POP POP JUMP JUMPDEST PUSH1 0x0 PUSH1 0x80 DUP3 ADD SWAP1 POP PUSH2 0x6CB PUSH1 0x0 DUP4 ADD DUP8 PUSH2 0x574 JUMP JUMPDEST DUP2 DUP2 SUB PUSH1 0x20 DUP4 ADD MSTORE PUSH2 0x6DD DUP2 DUP7 PUSH2 0x662 JUMP JUMPDEST SWAP1 POP PUSH2 0x6EC PUSH1 0x40 DUP4 ADD DUP6 PUSH2 0x574 JUMP JUMPDEST PUSH2 0x6F9 PUSH1 0x60 DUP4 ADD DUP5 PUSH2 0x6A7 JUMP JUMPDEST SWAP6 SWAP5 POP POP POP POP POP JUMP JUMPDEST PUSH1 0x0 PUSH20 0xFFFFFFFFFFFFFFFFFFFFFFFFFFFFFFFFFFFFFFFF DUP3 AND SWAP1 POP SWAP2 SWAP1 POP JUMP JUMPDEST PUSH1 0x0 PUSH2 0x72D DUP3 PUSH2 0x702 JUMP JUMPDEST SWAP1 POP SWAP2 SWAP1 POP JUMP JUMPDEST PUSH2 0x73D DUP2 PUSH2 0x722 JUMP JUMPDEST DUP3 MSTORE POP POP JUMP JUMPDEST PUSH1 0x0 PUSH1 0x20 DUP3 ADD SWAP1 POP PUSH2 0x758 PUSH1 0x0 DUP4 ADD DUP5 PUSH2 0x734 JUMP JUMPDEST SWAP3 SWAP2 POP POP JUMP JUMPDEST PUSH1 0x0 DUP1 REVERT JUMPDEST PUSH1 0x0 DUP1 REVERT JUMPDEST PUSH32 0x4E487B7100000000000000000000000000000000000000000000000000000000 PUSH1 0x0 MSTORE PUSH1 0x41 PUSH1 0x4 MSTORE PUSH1 0x24 PUSH1 0x0 REVERT JUMPDEST PUSH2 0x7A0 DUP3 PUSH2 0x651 JUMP JUMPDEST DUP2 ADD DUP2 DUP2 LT PUSH8 0xFFFFFFFFFFFFFFFF DUP3 GT OR ISZERO PUSH2 0x7BF JUMPI PUSH2 0x7BE PUSH2 0x768 JUMP JUMPDEST JUMPDEST DUP1 PUSH1 0x40 MSTORE POP POP POP JUMP JUMPDEST PUSH1 0x0 PUSH2 0x7D2 PUSH2 0x59E JUMP JUMPDEST SWAP1 POP PUSH2 0x7DE DUP3 DUP3 PUSH2 0x797 JUMP JUMPDEST SWAP2 SWAP1 POP JUMP JUMPDEST PUSH1 0x0 PUSH8 0xFFFFFFFFFFFFFFFF DUP3 GT ISZERO PUSH2 0x7FE JUMPI PUSH2 0x7FD PUSH2 0x768 JUMP JUMPDEST JUMPDEST PUSH2 0x807 DUP3 PUSH2 0x651 JUMP JUMPDEST SWAP1 POP PUSH1 0x20 DUP2 ADD SWAP1 POP SWAP2 SWAP1 POP JUMP JUMPDEST DUP3 DUP2 DUP4 CALLDATACOPY PUSH1 0x0 DUP4 DUP4 ADD MSTORE POP POP POP JUMP JUMPDEST PUSH1 0x0 PUSH2 0x836 PUSH2 0x831 DUP5 PUSH2 0x7E3 JUMP JUMPDEST PUSH2 0x7C8 JUMP JUMPDEST SWAP1 POP DUP3 DUP2 MSTORE PUSH1 0x20 DUP2 ADD DUP5 DUP5 DUP5 ADD GT ISZERO PUSH2 0x852 JUMPI PUSH2 0x851 PUSH2 0x763 JUMP JUMPDEST JUMPDEST PUSH2 0x85D DUP5 DUP3 DUP6 PUSH2 0x814 JUMP JUMPDEST POP SWAP4 SWAP3 POP POP POP JUMP JUMPDEST PUSH1 0x0 DUP3 PUSH1 0x1F DUP4 ADD SLT PUSH2 0x87A JUMPI PUSH2 0x879 PUSH2 0x75E JUMP JUMPDEST JUMPDEST DUP2 CALLDATALOAD PUSH2 0x88A DUP5 DUP3 PUSH1 0x20 DUP7 ADD PUSH2 0x823 JUMP JUMPDEST SWAP2 POP POP SWAP3 SWAP2 POP POP JUMP JUMPDEST PUSH1 0x0 DUP1 PUSH1 0x40 DUP4 DUP6 SUB SLT ISZERO PUSH2 0x8AA JUMPI PUSH2 0x8A9 PUSH2 0x5A8 JUMP JUMPDEST JUMPDEST PUSH1 0x0 DUP4 ADD CALLDATALOAD PUSH8 0xFFFFFFFFFFFFFFFF DUP2 GT ISZERO PUSH2 0x8C8 JUMPI PUSH2 0x8C7 PUSH2 0x5AD JUMP JUMPDEST JUMPDEST PUSH2 0x8D4 DUP6 DUP3 DUP7 ADD PUSH2 0x865 JUMP JUMPDEST SWAP3 POP POP PUSH1 0x20 PUSH2 0x8E5 DUP6 DUP3 DUP7 ADD PUSH2 0x5C9 JUMP JUMPDEST SWAP2 POP POP SWAP3 POP SWAP3 SWAP1 POP JUMP JUMPDEST PUSH32 0x4E487B7100000000000000000000000000000000000000000000000000000000 PUSH1 0x0 MSTORE PUSH1 0x22 PUSH1 0x4 MSTORE PUSH1 0x24 PUSH1 0x0 REVERT JUMPDEST PUSH1 0x0 PUSH1 0x2 DUP3 DIV SWAP1 POP PUSH1 0x1 DUP3 AND DUP1 PUSH2 0x936 JUMPI PUSH1 0x7F DUP3 AND SWAP2 POP JUMPDEST PUSH1 0x20 DUP3 LT DUP2 SUB PUSH2 0x949 JUMPI PUSH2 0x948 PUSH2 0x8EF JUMP JUMPDEST JUMPDEST POP SWAP2 SWAP1 POP JUMP JUMPDEST PUSH32 0x496E76616C69642070726F647563742069640000000000000000000000000000 PUSH1 0x0 DUP3 ADD MSTORE POP JUMP JUMPDEST PUSH1 0x0 PUSH2 0x985 PUSH1 0x12 DUP4 PUSH2 0x616 JUMP JUMPDEST SWAP2 POP PUSH2 0x990 DUP3 PUSH2 0x94F JUMP JUMPDEST PUSH1 0x20 DUP3 ADD SWAP1 POP SWAP2 SWAP1 POP JUMP JUMPDEST PUSH1 0x0 PUSH1 0x20 DUP3 ADD SWAP1 POP DUP2 DUP2 SUB PUSH1 0x0 DUP4 ADD MSTORE PUSH2 0x9B4 DUP2 PUSH2 0x978 JUMP JUMPDEST SWAP1 POP SWAP2 SWAP1 POP JUMP JUMPDEST PUSH32 0x4E487B7100000000000000000000000000000000000000000000000000000000 PUSH1 0x0 MSTORE PUSH1 0x32 PUSH1 0x4 MSTORE PUSH1 0x24 PUSH1 0x0 REVERT JUMPDEST PUSH32 0x50726F6475637420616C726561647920736F6C64000000000000000000000000 PUSH1 0x0 DUP3 ADD MSTORE POP JUMP JUMPDEST PUSH1 0x0 PUSH2 0xA20 PUSH1 0x14 DUP4 PUSH2 0x616 JUMP JUMPDEST SWAP2 POP PUSH2 0xA2B DUP3 PUSH2 0x9EA JUMP JUMPDEST PUSH1 0x20 DUP3 ADD SWAP1 POP SWAP2 SWAP1 POP JUMP JUMPDEST PUSH1 0x0 PUSH1 0x20 DUP3 ADD SWAP1 POP DUP2 DUP2 SUB PUSH1 0x0 DUP4 ADD MSTORE PUSH2 0xA4F DUP2 PUSH2 0xA13 JUMP JUMPDEST SWAP1 POP SWAP2 SWAP1 POP JUMP JUMPDEST PUSH32 0x496E636F727265637420616D6F756E742073656E740000000000000000000000 PUSH1 0x0 DUP3 ADD MSTORE POP JUMP JUMPDEST PUSH1 0x0 PUSH2 0xA8C PUSH1 0x15 DUP4 PUSH2 0x616 JUMP JUMPDEST SWAP2 POP PUSH2 0xA97 DUP3 PUSH2 0xA56 JUMP JUMPDEST PUSH1 0x20 DUP3 ADD SWAP1 POP SWAP2 SWAP1 POP JUMP JUMPDEST PUSH1 0x0 PUSH1 0x20 DUP3 ADD SWAP1 POP DUP2 DUP2 SUB PUSH1 0x0 DUP4 ADD MSTORE PUSH2 0xABB DUP2 PUSH2 0xA7F JUMP JUMPDEST SWAP1 POP SWAP2 SWAP1 POP JUMP JUMPDEST PUSH32 0x4F6E6C7920746865206F776E65722063616E2061646420612070726F64756374 PUSH1 0x0 DUP3 ADD MSTORE PUSH32 0x2100000000000000000000000000000000000000000000000000000000000000 PUSH1 0x20 DUP3 ADD MSTORE POP JUMP JUMPDEST PUSH1 0x0 PUSH2 0xB1E PUSH1 0x21 DUP4 PUSH2 0x616 JUMP JUMPDEST SWAP2 POP PUSH2 0xB29 DUP3 PUSH2 0xAC2 JUMP JUMPDEST PUSH1 0x40 DUP3 ADD SWAP1 POP SWAP2 SWAP1 POP JUMP JUMPDEST PUSH1 0x0 PUSH1 0x20 DUP3 ADD SWAP1 POP DUP2 DUP2 SUB PUSH1 0x0 DUP4 ADD MSTORE PUSH2 0xB4D DUP2 PUSH2 0xB11 JUMP JUMPDEST SWAP1 POP SWAP2 SWAP1 POP JUMP JUMPDEST PUSH1 0x0 DUP2 SWAP1 POP DUP2 PUSH1 0x0 MSTORE PUSH1 0x20 PUSH1 0x0 KECCAK256 SWAP1 POP SWAP2 SWAP1 POP JUMP JUMPDEST PUSH1 0x0 PUSH1 0x20 PUSH1 0x1F DUP4 ADD DIV SWAP1 POP SWAP2 SWAP1 POP JUMP JUMPDEST PUSH1 0x0 DUP3 DUP3 SHL SWAP1 POP SWAP3 SWAP2 POP POP JUMP JUMPDEST PUSH1 0x0 PUSH1 0x8 DUP4 MUL PUSH2 0xBB6 PUSH32 0xFFFFFFFFFFFFFFFFFFFFFFFFFFFFFFFFFFFFFFFFFFFFFFFFFFFFFFFFFFFFFFFF DUP3 PUSH2 0xB79 JUMP JUMPDEST PUSH2 0xBC0 DUP7 DUP4 PUSH2 0xB79 JUMP JUMPDEST SWAP6 POP DUP1 NOT DUP5 AND SWAP4 POP DUP1 DUP7 AND DUP5 OR SWAP3 POP POP POP SWAP4 SWAP3 POP POP POP JUMP JUMPDEST PUSH1 0x0 DUP2 SWAP1 POP SWAP2 SWAP1 POP JUMP JUMPDEST PUSH1 0x0 PUSH2 0xBFD PUSH2 0xBF8 PUSH2 0xBF3 DUP5 PUSH2 0x56A JUMP JUMPDEST PUSH2 0xBD8 JUMP JUMPDEST PUSH2 0x56A JUMP JUMPDEST SWAP1 POP SWAP2 SWAP1 POP JUMP JUMPDEST PUSH1 0x0 DUP2 SWAP1 POP SWAP2 SWAP1 POP JUMP JUMPDEST PUSH2 0xC17 DUP4 PUSH2 0xBE2 JUMP JUMPDEST PUSH2 0xC2B PUSH2 0xC23 DUP3 PUSH2 0xC04 JUMP JUMPDEST DUP5 DUP5 SLOAD PUSH2 0xB86 JUMP JUMPDEST DUP3 SSTORE POP POP POP POP JUMP JUMPDEST PUSH1 0x0 SWAP1 JUMP JUMPDEST PUSH2 0xC40 PUSH2 0xC33 JUMP JUMPDEST PUSH2 0xC4B DUP2 DUP5 DUP5 PUSH2 0xC0E JUMP JUMPDEST POP POP POP JUMP JUMPDEST JUMPDEST DUP2 DUP2 LT ISZERO PUSH2 0xC6F JUMPI PUSH2 0xC64 PUSH1 0x0 DUP3 PUSH2 0xC38 JUMP JUMPDEST PUSH1 0x1 DUP2 ADD SWAP1 POP PUSH2 0xC51 JUMP JUMPDEST POP POP JUMP JUMPDEST PUSH1 0x1F DUP3 GT ISZERO PUSH2 0xCB4 JUMPI PUSH2 0xC85 DUP2 PUSH2 0xB54 JUMP JUMPDEST PUSH2 0xC8E DUP5 PUSH2 0xB69 JUMP JUMPDEST DUP2 ADD PUSH1 0x20 DUP6 LT ISZERO PUSH2 0xC9D JUMPI DUP2 SWAP1 POP JUMPDEST PUSH2 0xCB1 PUSH2 0xCA9 DUP6 PUSH2 0xB69 JUMP JUMPDEST DUP4 ADD DUP3 PUSH2 0xC50 JUMP JUMPDEST POP POP JUMPDEST POP POP POP JUMP JUMPDEST PUSH1 0x0 DUP3 DUP3 SHR SWAP1 POP SWAP3 SWAP2 POP POP JUMP JUMPDEST PUSH1 0x0 PUSH2 0xCD7 PUSH1 0x0 NOT DUP5 PUSH1 0x8 MUL PUSH2 0xCB9 JUMP JUMPDEST NOT DUP1 DUP4 AND SWAP2 POP POP SWAP3 SWAP2 POP POP JUMP JUMPDEST PUSH1 0x0 PUSH2 0xCF0 DUP4 DUP4 PUSH2 0xCC6 JUMP JUMPDEST SWAP2 POP DUP3 PUSH1 0x2 MUL DUP3 OR SWAP1 POP SWAP3 SWAP2 POP POP JUMP JUMPDEST PUSH2 0xD09 DUP3 PUSH2 0x60B JUMP JUMPDEST PUSH8 0xFFFFFFFFFFFFFFFF DUP2 GT ISZERO PUSH2 0xD22 JUMPI PUSH2 0xD21 PUSH2 0x768 JUMP JUMPDEST JUMPDEST PUSH2 0xD2C DUP3 SLOAD PUSH2 0x91E JUMP JUMPDEST PUSH2 0xD37 DUP3 DUP3 DUP6 PUSH2 0xC73 JUMP JUMPDEST PUSH1 0x0 PUSH1 0x20 SWAP1 POP PUSH1 0x1F DUP4 GT PUSH1 0x1 DUP2 EQ PUSH2 0xD6A JUMPI PUSH1 0x0 DUP5 ISZERO PUSH2 0xD58 JUMPI DUP3 DUP8 ADD MLOAD SWAP1 POP JUMPDEST PUSH2 0xD62 DUP6 DUP3 PUSH2 0xCE4 JUMP JUMPDEST DUP7 SSTORE POP PUSH2 0xDCA JUMP JUMPDEST PUSH1 0x1F NOT DUP5 AND PUSH2 0xD78 DUP7 PUSH2 0xB54 JUMP JUMPDEST PUSH1 0x0 JUMPDEST DUP3 DUP2 LT ISZERO PUSH2 0xDA0 JUMPI DUP5 DUP10 ADD MLOAD DUP3 SSTORE PUSH1 0x1 DUP3 ADD SWAP2 POP PUSH1 0x20 DUP6 ADD SWAP5 POP PUSH1 0x20 DUP2 ADD SWAP1 POP PUSH2 0xD7B JUMP JUMPDEST DUP7 DUP4 LT ISZERO PUSH2 0xDBD JUMPI DUP5 DUP10 ADD MLOAD PUSH2 0xDB9 PUSH1 0x1F DUP10 AND DUP3 PUSH2 0xCC6 JUMP JUMPDEST DUP4 SSTORE POP JUMPDEST PUSH1 0x1 PUSH1 0x2 DUP9 MUL ADD DUP9 SSTORE POP POP POP JUMPDEST POP POP POP POP POP POP JUMP JUMPDEST PUSH1 0x0 PUSH1 0x60 DUP3 ADD SWAP1 POP PUSH2 0xDE7 PUSH1 0x0 DUP4 ADD DUP7 PUSH2 0x574 JUMP JUMPDEST DUP2 DUP2 SUB PUSH1 0x20 DUP4 ADD MSTORE PUSH2 0xDF9 DUP2 DUP6 PUSH2 0x662 JUMP JUMPDEST SWAP1 POP PUSH2 0xE08 PUSH1 0x40 DUP4 ADD DUP5 PUSH2 0x574 JUMP JUMPDEST SWAP5 SWAP4 POP POP POP POP JUMP INVALID LOG2 PUSH5 0x6970667358 0x22 SLT KECCAK256 PUSH24 0xD5A4FBDED082860C1AD2902072B945EEF55BA33D3502513F 0xDC SWAP5 SWAP10 0x2D SWAP14 GASLIMIT SWAP12 PUSH5 0x736F6C6343 STOP ADDMOD SLT STOP CALLER "
				},
				"gasEstimates": {
					"creation": {
						"codeDepositCost": "730800",
						"executionCost": "25032",
						"totalCost": "755832"
					},
					"external": {
						"addProduct(string,uint256)": "infinite",
						"buyProduct(uint256)": "infinite",
						"owner()": "2558",
						"products(uint256)": "infinite",
						"total()": "2423"
					}
				},
				"methodIdentifiers": {
					"addProduct(string,uint256)": "b15247d9",
					"buyProduct(uint256)": "8642269e",
					"owner()": "8da5cb5b",
					"products(uint256)": "7acc0b20",
					"total()": "2ddbd13a"
				}
			},
			"storageLayout": {
				"storage": [
					{
						"astId": 15,
						"contract": "contracts/3_ProductMarketplace.sol:ProductMarketplace",
						"label": "products",
						"offset": 0,
						"slot": "0",
						"type": "t_array(t_struct(Product)11_storage)dyn_storage"
					},
					{
						"astId": 17,
						"contract": "contracts/3_ProductMarketplace.sol:ProductMarketplace",
						"label": "owner",
						"offset": 0,
						"slot": "1",
						"type": "t_address_payable"
					}
				],
				"types": {
					"t_address_payable": {
						"encoding": "inplace",
						"label": "address payable",
						"numberOfBytes": "20"
					},
					"t_array(t_struct(Product)11_storage)dyn_storage": {
						"base": "t_struct(Product)11_storage",
						"encoding": "dynamic_array",
						"label": "struct ProductMarketplace.Product[]",
						"numberOfBytes": "32"
					},
					"t_bool": {
						"encoding": "inplace",
						"label": "bool",
						"numberOfBytes": "1"
					},
					"t_string_storage": {
						"encoding": "bytes",
						"label": "string",
						"numberOfBytes": "32"
					},
					"t_struct(Product)11_storage": {
						"encoding": "inplace",
						"label": "struct ProductMarketplace.Product",
						"members": [
							{
								"astId": 4,
								"contract": "contracts/3_ProductMarketplace.sol:ProductMarketplace",
								"label": "id",
								"offset": 0,
								"slot": "0",
								"type": "t_uint256"
							},
							{
								"astId": 6,
								"contract": "contracts/3_ProductMarketplace.sol:ProductMarketplace",
								"label": "name",
								"offset": 0,
								"slot": "1",
								"type": "t_string_storage"
							},
							{
								"astId": 8,
								"contract": "contracts/3_ProductMarketplace.sol:ProductMarketplace",
								"label": "price",
								"offset": 0,
								"slot": "2",
								"type": "t_uint256"
							},
							{
								"astId": 10,
								"contract": "contracts/3_ProductMarketplace.sol:ProductMarketplace",
								"label": "sold",
								"offset": 0,
								"slot": "3",
								"type": "t_bool"
							}
						],
						"numberOfBytes": "128"
					},
					"t_uint256": {
						"encoding": "inplace",
						"label": "uint256",
						"numberOfBytes": "32"
					}
				}
			},
			"userdoc": {
				"kind": "user",
				"methods": {},
				"version": 1
			}
		}
	}
}